:0200000460009A
:10000000464346420004015600000000010303007D
:1000100000000000000000000000000000000000E0
:1000200000000000000000000000000000000000D0
:1000300000000000000000000000000000000000C0
:1000400000000000000406000000000000000000A6
:100050000000800000000000000000000000000020
:100060000000000000000000000000000000000090
:100070000000000000000000000000000000000080
:10008000EB04180A063204260000000000000000FD
:100090000000000000000000000000000000000060
:1000A0000000000000000000000000000000000050
:1000B0000000000000000000000000000000000040
:1000C0000000000000000000000000000000000030
:1000D0000000000000000000000000000000000020
:1000E0000000000000000000000000000000000010
:1000F0000000000000000000000000000000000000
:1001000000000000000000000000000000000000EF
:1001100000000000000000000000000000000000DF
:1001200000000000000000000000000000000000CF
:1001300000000000000000000000000000000000BF
:1001400000000000000000000000000000000000AF
:10015000000000000000000000000000000000009F
:10016000000000000000000000000000000000008F
:10017000000000000000000000000000000000007F
:10018000000000000000000000000000000000006F
:10019000000000000000000000000000000000005F
:1001A000000000000000000000000000000000004F
:1001B000000000000000000000000000000000003F
:1001C000000100000010000000000000000000001E
:1001D000000004000000000000000000000000001B
:1001E000000000000000000000000000000000000F
:1001F00000000000000000000000000000000000FF
:1002000000000000000000000000000000000000EE
:1002100000000000000000000000000000000000DE
:10100000D10020410020006000000000000000002E
:1010100020100060001000600000000000000000D0
:101020000000006098A3010000000000FFFFFFFF28
:1010300000000000000000000000000000000000B0
:1010400000000000000000000000000000000000A0
:101050000000000000000000000000000000000090
:101060000000000000000000000000000000000080
:1020000000A928200950006009B80060F54F006061
:10201000F54F0060F54F0060F54F006000000000D4
:1020200000000000000000000000000009510060F6
:10203000F54F0060000000006D500060DD6D006035
:102040005953006059530060595300605953006060
:102050005953006059530060595300605953006050
:102060005953006059530060595300605953006040
:102070005953006059530060595300605953006030
:1022C00053B94AB9002908BF00281CBF4FF0FF319D
:1022D0004FF0FF3000F00CB8ADF1080C6DE904CE02
:1022E00000F010F8DDF804E0DDE9022304B07047E7
:1022F000704700BF034613F8012B002AFBD1181AC0
:10230000013870472DE9F04786468C460846089EFE
:10231000154674461946002B40F0C2808542B2FA39
:1023200082F245D94AB1C2F1200300FA02FC2EFA2A
:1023300003F3954043EA0C0C94404FEA154EA8B2C3
:10234000BCFBFEF8230C0EFB18CC08FB00F943EA9B
:102350000C43994528D9EB1808F1FF3704D2994569
:1023600002D9A8F102072B44A3EB0903A4B2B3FBE3
:10237000FEFC0EFB1C330CFB00F044EA0344A042BD
:1023800014D92C190CF1FF3304D2A04202D9ACF1BC
:1023900002032C44241A43EA07401EB1D440002310
:1023A00034607360BDE8F0874746DDE76346F1E7D8
:1023B00092BB431B01214FEA154EAFB2B3FBFEFCAB
:1023C000200C0EFB1C330CFB07F840EA0343984536
:1023D00062D9EB180CF1FF3004D2984502D9ACF168
:1023E00002002B44A3EB0803A4B2B3FBFEFC0EFBDC
:1023F0001C330CFB07F744EA0344A7424ED92C19BF
:102400000CF1FF3304D2A74202D9ACF102032C44F1
:10241000E41B43EA0040C0E7C2F1200320FA03F1C5
:10242000954090402EFA03F303434FEA154EAFB2A6
:10243000B1FBFEFC0EFB1C10190C0CFB07F841EA6B
:102440000041884504FA02F422D969180CF1FF30E2
:1024500004D2884502D9ACF102002944A1EB08015D
:102460009BB2B1FBFEFC0EFB1C110CFB07F743EA11
:1024700001439F420ED9EB180CF1FF3104D29F4269
:1024800002D9ACF102012B44DB1B41EA004192E787
:102490006046E3E76146F7E76046A3E76346B7E7D0
:1024A000834206D916B9002108467BE7C6E900E059
:1024B000F9E7B3FA83F78FB9834201D3724508D89D
:1024C000BEEB020460EB030301209C461EB9002111
:1024D00068E73846FAE7C6E9004CF8E7C7F1200C90
:1024E000BB4022FA0CF41C432EFA0CF120FA0CF338
:1024F000B84001434FEA14490EFA07F5B3FBF9F867
:102500001FFA84FE09FB18300B0C08FB0EFA43EA95
:1025100000439A4502FA07F240D9E31808F1FF3068
:1025200004D29A4502D9A8F102002344A3EB0A037E
:1025300089B2B3FBF9F809FB183308FB0EFE41EA38
:1025400003418E452CD9611808F1FF3304D28E4522
:1025500002D9A8F10203214443EA0040A0FB0298FB
:10256000A1EB0E014145CE46434602D306D14D456F
:1025700004D2B9EB020E68EB04030138002EA6D09A
:10258000B5EB0E0261EB030101FA0CFC22FA07F332
:102590004CEA0303F940C6E9003198E74046C5E735
:1025A0004346D9E730B587B0044603930123CDE90C
:1025B00000120493002207238DF808208DF81430B0
:1025C000074869469DF81430826843F002038DF88D
:1025D0001430234695680222A84707B030BD00BFDB
:1025E00084E400601FB502238DF800008DF801100F
:1025F000CDF804D002938DF80C30074801A99DF85E
:102600000C30826843F002038DF80C302723946865
:102610000122A04704B010BD84E400602DE9F04F12
:1026200040F6B83085B008F0DDFB954808F07CFD39
:10263000944808F079FD944808F076FD934808F036
:1026400073FD934808F070FD92480BF0B0F838B96C
:10265000914808F069FD4FF0FF3005B0BDE8F08FFC
:102660008E48032500248E4F8E4E08F05DFDDFF866
:10267000AC828D4808F058FD00220DF10F03A8B27E
:102680001146FFF78FFF90B92946384608F04CFDF8
:10269000272D04F1010407D14046282508F044FD08
:1026A000304608F041FDE7E7304608F03DFD0135D2
:1026B000782DE1D10CB97D48CBE721467C4808F064
:1026C00033FD7C4808F030FD0DF10F01002008F0CB
:1026D0007CFB044620B10146774808F025FDBAE7A7
:1026E0009DF80F10754B764A7648FF2918BF1A4699
:1026F00008F01AFD744808F017FD744808F014FD3E
:10270000FE212046FFF76EFF014608B17048E4E75E
:102710000DF10F0108F059FB044610B101466D4858
:10272000DBE76D4B9DF80F106C4A6D48FE2918BF12
:102730001A4608F0F9FC9DF80F30FE2B8BD1254688
:10274000DFF8DC81674FDFF8DC91674808F0ECFCCC
:1027500005F001061220013586F0010A5146FFF707
:1027600041FF0DF10F01142008F02FFB9DF80F30F1
:102770005E4952465E48534518BF49460091002EB7
:102780000CBF4146394608F0CFFC4FF47A7008F090
:1027900029FB062DDCD1574808F0C6FC564808F046
:1027A000C3FC564808F0C0FC00210846FFF71AFF9A
:1027B000014610B1524808F0B7FC00210120FFF794
:1027C00011FF014610B14F4808F0AEFC0DF10F01AA
:1027D000002008F0FAFA9DF80F104B4808F0A4FC0E
:1027E0004A4D0DF10F01012008F0EFFA9DF80F108E
:1027F000474808F099FCFF211220FFF7F3FEFF2164
:102800001320FFF7EFFE0DF10F01142008F0DDFAA1
:102810009DF80F2021463F4808F086FC0DF10F017E
:10282000152008F0D2FA9DF80F10284608F07CFC1D
:102830004FF4FA7008F0D6FA00211220FFF7D2FE0A
:1028400000211320FFF7CEFE0DF10F01142008F038
:10285000BCFA9DF80F2021462F4808F065FC0DF1C9
:102860000F011520013408F0B0FA9DF80F1028462A
:1028700008F05AFC4FF4FA7008F0B4FABBE700BF56
:102880005C0A01608B0A0160B40A0160E40A01601D
:10289000090B016084E40060380B0160600B01608B
:1028A0009A0B0160E90E01607C0B0160CB0B0160AB
:1028B000160C01602C0C0160640C0160F7090160CA
:1028C000D60901607A0C01608E0C0160BB0C0160BE
:1028D000F40C01600B0D0160410A01601E0A0160E9
:1028E000250D01604B0A01603D0D0160500A016039
:1028F0006D0D0160A30D0160D80D0160170E016020
:10290000440E0160670E01608A0E01600C0F0160C9
:10291000BA0E0160EB0E01601F0F0160B10B016088
:10292000460A0160530A01602DE9F04F91B0840717
:1029300005460E46009302F00403DDF8688002931A
:10294000C2F3C203039203F10103059340F0BA817D
:10295000041D30B1072909D86FF01B0011B0BDE884
:10296000F08F01F007063444C6F10806009B4FF0D3
:1029700000094FF0040A591E4FF0FF334F46CB4673
:1029800001935346CDF810900DB100982060059842
:10299000002800F3E8809848009A824203D39748C1
:1029A0008242C0F0E080039AA4EB050E92074FEA42
:1029B0009E0000F103810F2F00F2B180002D00F086
:1029C000058107F140020DEB020C019A0CF8200C76
:1029D0000CF8102C049801300490E7E07A285DD8B8
:1029E0004B280ED8472859D829282DD8252852D029
:1029F00054D820287AD02338D0F1000B4BEB000BB1
:102A000074E04C382E2849D8DFE800F07048484878
:102A100048484848484848484B4848484848484833
:102A20004859484B4B595959704B6D487048184B91
:102A3000184848827F4B48484B487F0000204FF0A1
:102A4000000B4FF0040A38E02A380122C0B202FA23
:102A500000F010EA0E0F49D110F0625C2FD110EA9D
:102A6000020B43D06046013C5444B4FBFAF40AFB29
:102A700004F4002D61D0A3EB050CA444B4453FF64B
:102A80006BAF002868D1042B47D158F8043B236072
:102A9000043404232AE0019A013A01924FF0000B1A
:102AA00024E011F8010C6C2834D111F8023C00200C
:102AB0006C2B8346C5D14FF0080A5346D3E708F183
:102AC0000708073428F0070824F00704F8E802ABE9
:102AD00035B106982044B0423FF63EAFC4E900ABA2
:102AE00008344FF0000B4FF0080A534611F8010F5D
:102AF000002878D0BBF1000F7FF470AF2528F5D106
:102B0000019B4FF0010B013301934FF0040AECE7F6
:102B1000584694E700208346A5E7082B02D06FF0C3
:102B200015001BE708F1070828F00708B8EC027B3E
:102B300084ED007B08340823D8E768B9042B02D160
:102B400008F10408A4E7082BE9D108F1070828F0E8
:102B5000070808F10808EDE705980138059058F8CE
:102B6000040B009010E7039A900720D5A4EB050E04
:102B70004FF0010C4FEA9E00BEF5007FCFD20F2F21
:102B8000CDD8F5B107F14002C0B20DEB020E019AAB
:102B90000EF8200C0EF8102CBCF1000F3FF41AAF09
:102BA00060F07F0009F101090EF8200C0137C5F132
:102BB000080204344FF6DA7E069297E74FF0000CD5
:102BC000DAE7BCF1000F01D00136EFE7029A0236D6
:102BD000002AEBD10098CDE90631FFF78BFB0644C4
:102BE000DDE90631E2E7631BB3F5806F97D23DB9AB
:102BF000A6F10804E018B1E654E10060A81E0160E7
:102C00009B08029A28602B709DF81030C2B1EB70BF
:102C100085F80290B9F1000F05D008A80022C5F18F
:102C2000010C97420ED1C5F101030DF120084FF0C0
:102C3000000A0DF1300B0193574512D1601B8DE650
:102C40006B70E5E710F8013B190608D50CEB040E94
:102C500003F07F03B6453FF67FAE04F8013B013237
:102C6000DFE7B9F1000F03D098F90020002A17DB45
:102C7000029BD3B11AF80B2004F8012B0022019B10
:102C800018191044B0423FF667AE98F8000000995A
:102C900004F8010B204603920BF07AF8039A1444CF
:102CA0000AF1010A08F10108C6E798F8002055F872
:102CB00022300093029B009845F82230FFF71AFB60
:102CC000421CDCE76FF00D0048E600BF014B1860C6
:102CD000704700BF1883282080B505460E4617466A
:102CE000984606F0E7FBDFF8209003460BF028FA41
:102CF0000446424649F8003039463046A84754F861
:102D0000090002F09DF900BF0800000038B5344A00
:102D1000344B1A604FF40042334B1A60334B9A69BC
:102D200022F4405242F480529A615A6942F0007291
:102D30005A619A6C9006FCD42D4AD36823F01F0385
:102D400043F01303D3601368002BFCDA294805F025
:102D50006BF8264B1A6922F0070242F001021A6151
:102D60009A6CD103FCD45A6922F4E0525A611F4B89
:102D70009A6C9207FCD45A691C4C42F440725A6116
:102D80009A6942F440229A615A6922F000725A61AB
:102D9000A56C15F02005FBD1636A2846164923F07F
:102DA00040036362636A23F03F036362A36B23F40F
:102DB0008023A363A36B23F0FC7343F42013A3636A
:102DC00005F076F80C49284605F006F80B4A044948
:102DD00002200AF01AF9636D23F00303636538BD1E
:102DE00000366E01709528206C95282000C00F4099
:102DF0000000084028EF006000389C1C98832820C1
:102E00002DE9F84F814630480F4608F040FA064653
:102E100070B92E4C0546DFF8B8B04FF0010AA04655
:102E20005C4507D3B9F1000F02D04FF0010AFDB99C
:102E3000BDE8F88F237B83B12368DB680BB12046A4
:102E40009847636883F806A023681B6943B96368E1
:102E500004222046196808F03FFA01361034DFE7F3
:102E6000204698470028F2D00AFA06F31D43F4E7FB
:102E7000A94695FAA5F4B4FA84F40AFA04F32601F3
:102E800008EB04146FEA030B25EA0305237B63B107
:102E900058F806301B698BB946440422204609EADB
:102EA0000B097368196808F017FA002DE1D11FB1FA
:102EB000642000210AF06BFE4D46B8E72046984793
:102EC0000028F2D1E8E700BFB88F28207CEC006032
:102ED0008CEC0060014B53F8200070475CEF006001
:102EE00008B5034608462BB1044A136000F080FA87
:102EF000002008BD6FF01500FBE700BF1C832820F1
:102F000000230C4A4FF47A710B4810B513700B4A2A
:102F100013600B4A1360FFF7E3FF0A4B0A49184698
:102F20008B4200D310BD1A1A5C68103312110132A3
:102F30002271F5E7AC9528207FB20060B08F282081
:102F4000B48F28207CEC00608CEC006070B50B4DD9
:102F5000297841B90A4C01200A4EFFF751FFB442CB
:102F600002D301232B7070BD63685B791BB12368AA
:102F700020469B6898471034F1E700BFAC952820A5
:102F80007CEC00608CEC006010B50446084808F04A
:102F90007EF95CB1074BBFF35B8F53E8001F01392B
:102FA00043E80012002AF8D1BFF35B8F10BD00BFC9
:102FB000B08F2820B48F28200A4B70B505460A4CE4
:102FC0000A4E1B689847A860B44200D370BD63687E
:102FD0005B7923B12368294620461B689847103443
:102FE000F2E700BF1C8328207CEC00608CEC0060C2
:102FF000044A054B9B1AB1EBD30F34BF52F8310092
:1030000000207047ECEB00607CEC00602DE9F04F95
:1030100087B004460E46934604AF98463D6BD7E909
:103020000EA9BAF1000F1ED0C7F804901021CDF8F8
:10303000009053467A6B0020FFF776FCB0F5006FE6
:10304000014611D340F2FF73022219490393194B31
:10305000029300231846CDE9003308F05FF90C37DE
:10306000BD46BDE8F08F514604F007040BF0070B96
:10307000E40044EA8B1444EA412444EA0554173539
:103080000D4425F00705ADEB050D04ADBAF1000FB9
:1030900007D0CDF8009053467A6B05F11000FFF78A
:1030A00043FC434622463146284608F01EF9D6E73F
:1030B00014EC0060740F0160406820B1034BC01A2B
:1030C00040F3CF0070474FF0FF307047ECEB0060EB
:1030D0000EB403B503AB0146054853F8042B019326
:1030E00002F03EFB02B05DF804EB03B0704700BF96
:1030F00059B30060CA0605D48B064CBF0249034988
:10310000FFF7E6BF704700BFE90E0160AC0F01603A
:103110002DE9F04F87B004460D4690469DF8446077
:103120009946002E00F0A280159B03F0020A03F0DE
:1031300001030493159B03F0080B03F480730593BC
:1031400008F0C8F8024600283DD095492046FFF710
:10315000BFFF0746BAF1000F09D0159B13F0440FCB
:1031600033D12A468F492046FFF7B2FF0744049B1C
:1031700053B18D4B20468D4953F826208C4B002AA5
:1031800008BF1A46FFF7A4FF059B002B49D0BBF1EF
:10319000000F64D1B8F1000F66D042468549204641
:1031A000FFF796FF0546129B3D44002B6DD1149B03
:1031B000002B73D1159BDB0700F1EB80159920469E
:1031C000FFF798FFD8E00746C4E77B4B1868002854
:1031D000CCD07A4B4FF47A7A4FF03C0C1B68B5FB9D
:1031E000F3F5B5FBF0F100FB11554FF461630AFBF9
:1031F00005F5B1FBF3F2B5FBF0FE03FB121100FB8A
:103200001E55B1FBFCF30AFB05F50CFB1311B5FBD6
:10321000F0F5009120466A49CDE901E5FFF758FF36
:10322000A4E7BBF1000F1DD0664B2046664953F85A
:103230002620FFF74DFF0546B8F1000F05D04246A6
:103240005C492046FFF744FF0544B9F1000FAAD0BE
:103250004A465E492046FFF73BFF0544A3E74FF08F
:103260000009E1E75D46E7E745469CE7B9F1010F54
:10327000129B06D1002B66D1149B002B7CD000251D
:103280000CE0002BF8D052485EE05248129B2246D8
:10329000514907F016FF149B002B6AD0DFF84481D8
:1032A000DFF84491149F4FF0000B15992046102F22
:1032B00028BF1027FFF71EFF5D4547DC139B4FF02B
:1032C000010B494620461A78FFF702FF1BF0070F53
:1032D00003D141462046FFF7FBFE5F453DD9139BD6
:1032E0004946204613F80B20FFF7F2FE0BF1010BC5
:1032F000BBF1100FEAD14FF0000A38492046DFF841
:10330000ECB0FFF7E5FE5246139B20469A5CA2F113
:1033100020015F29594628BF2E22FFF7D9FE0AF166
:10332000010ABAF1100F1DD01AF0070F03D1414660
:103330002046FFF7CDFE57455246E5D84146204688
:10334000FFF7C6FEEBE7234835469FE74146204698
:103350000BF1010BFFF7BCFEAEE721492046FFF75A
:10336000B7FEC3E7139B3B441393149BDB1B1493DF
:1033700098D1002E7FF41EAF6268A1682068D2E960
:10338000002307F0DBFF636800221A6007B0BDE886
:10339000F08F074A20460549FFF79AFE0EE700BF67
:1033A000B40F0160B80F01606CEF0060DD0F0160C9
:1033B000AF0F0160E00F0160C08F2820BC8F282074
:1033C000C10F016080EF0060E40F0160EA0F01604F
:1033D00075B3006059B3006061570060F90F016078
:1033E000F50F0160F70F0160EF0F0160FB0F016047
:1033F00000210123064A904206D8064A01B901235A
:103400001360054B18607047400801215B00F2E72C
:1034100040420F00BC8F2820C08F2820F8B50D46F1
:1034200004464618054FB44201D12846F8BD14F8A9
:10343000011BBB6801485B689847F4E784E20060C1
:10344000014B036000207047C8EF00600D4BF0B4E3
:103450000D4E5F6A0D4BB34203D36FF08500F0BC95
:1034600070475C68BC420AD31D6945B194F802C03C
:103470008488E4B2A44502D12B46F0BC184724331B
:10348000E9E700BFE88F2820EC842820C8842820A2
:103490002DE9F04705460E461746134CDFF84C80E1
:1034A000DFF84C90444503D36FF08500BDE8F0870A
:1034B0006268D9F824309A4213D3A3698BB1A988E2
:1034C0009078C9B2884205D13A4631462846BDE8CF
:1034D000F04718475279012A03D13A463146284627
:1034E00098472434DEE700BFC8842820EC842820D5
:1034F000E88F28202DE9F04105460E4617460A4C74
:10350000DFF82880444502D36FF0850009E0636945
:103510000BB92434F6E73A46314628469847002846
:10352000F7D1BDE8F08100BFC8842820EC842820B2
:10353000024B00221A605A60704700BFA3902820F7
:1035400070B50B4B0B4CA34201D3002070BD196A20
:1035500000221E7F0439D5B2AE4201D82433F2E7EF
:10356000013211F832508542F5D10120EEE700BF5B
:10357000C8842820EC84282073B584880D46E4B2E2
:1035800063068DF8074007D02046FFF7D9FF78B1D2
:103590000D4B93F8BA0058B10B4E204655B102F0CE
:1035A00091FBF3691BB10DF1070108209847012039
:1035B00002B070BD02F0BEFBF369002BF7D00DF135
:1035C00007010920F2E700BFE88F2820094808B565
:1035D0000378C3F341130A3350F823303BB100F1B1
:1035E000080200F110019847C043C00F08BD1846FB
:1035F000FCE700BFE88F282010F0700F1FB500F027
:103600007F030ED000240B4B03900122204602932F
:1036100009492346CDE9004407F024FF204604B0C1
:1036200010BD10F0800F4FF0010018BF103398400C
:10363000F5E700BF381001606CEC006030B585B074
:10364000054602F07BFC10F1780F04460ED068B1FD
:103650000C4B01220C490293002303951846CDE937
:10366000003307F0FFFE204605B030BD2846002499
:10367000FFF7C2FF054AD2F8C43023EA0003C2F8BC
:10368000C430F0E7531001606CEC0060E88F282034
:1036900004282DE9F74F04460F46DFF8A09015D017
:1036A00001282FD1DFF8908098F8B93053B3214D1D
:1036B00000F0A6FE4D4522D22A6A4FF0000A2B7F69
:1036C0005FFA8AF6B34204D82435F3E7FFF730FFF8
:1036D000E8E702EBC60601920AF1010A307902F02E
:1036E0002DFC83463079FFF787FFD8F8C430BBF153
:1036F000000F019A23EA0003C8F8C430DFDA002380
:1037000088F8B9300B4D4D4508D30B4B1B6A6BB194
:103710003946204603B0BDE8F04F1847EB681BB1AF
:103720003A462146284698472435ECE703B0BDE8E1
:10373000F08F00BFC8842820E88F2820EC84282040
:1037400070B5044686B08078264D8DF81000237938
:10375000627943EA0223ADF81230E37803F0030301
:103760008DF81430FFF748FFD5F8C43006461842EC
:103770000CD0A478204600F025FE2046FFF75EFF1F
:103780000AF04EF910B996200AF029FA04A802F0BE
:1037900003FA10F1780F03469DF810000ED06BB1BC
:1037A000114B039002930023012210491846CDE9E2
:1037B000003307F057FE002006B070BD02F064FB36
:1037C00010F1780F05D020B19DF810300393084B0D
:1037D000E8E7D5F8C4300120334385F8B900C5F8CF
:1037E000C430E9E7E88F2820751001606CEC0060B8
:1037F000991001602DE9F047A84E04460F46154682
:10380000B369FBB9237803F01F03012B00F09E80FE
:10381000022B00F0068133BB94F900002A680028CF
:10382000617834DA062912D008292BD0D9B90123BE
:103830005170137096F8C3305B0043F001031370AE
:10384000022328E198470028DCD100200DE062889F
:10385000100A011F8446012905D9072803D8D2B2CE
:10386000716A0C781CB96FF01500BDE8F0874E78CE
:10387000664503D19A4200F0098101332144F0E703
:103880000B7808E196F8BA301370012303E101398F
:103890000829E8D801A353F821F000BF37390060A8
:1038A000673800604539006067380060C1380060E3
:1038B000673800606738006067380060CF380060A4
:1038C0006088C0B202F020F90028BED0CBE7638840
:1038D000756A63BBFFF72CFE638886F8BA30F3691C
:1038E000002BB2D06E4903209847AEE76B78042BCB
:1038F00010D0052B11D0022B04D16F796388BB4205
:1039000008BF01202B781D442B78002BEED1002816
:10391000A9D0DFE795F80380F4E76388BB42F1D1D3
:10392000B8F1000FEED12846FFF70AFFEAE7FF27BC
:103930000020B846E8E76388012B94D1002386F87D
:10394000C33082E76388012B8DD1F8E796F8BA304F
:10395000D5F800C0002B86D0A388756A5FFA83FE75
:103960002A46107800283FF47EAF5178022904D10E
:1039700092F80480F04500F295800244F1E78CF85B
:1039800000208CF8012039605FE7154496E00B2A8F
:103990007FF469AF00274FF0FF08BA46C14606E042
:1039A0006B78042B0FD0052B21D02B781D442B785E
:1039B000002BF5D1F36913B1514607209847002F2A
:1039C0007FF443AF4FE795F80280A38895F8039002
:1039D0009845EAD163889945E7D1B8F1070F1DD81A
:1039E00006EB0803AA46012783F8BB90DDE7A3880E
:1039F0004345DAD16388DBB24B450AD0AF7838460D
:103A000000F0E0FC3846FFF719FEB0FA80F77F09B6
:103A1000CBE72846FFF794FE0746C6E7AA460027ED
:103A2000C3E794F900206378002A19DA002B7FF4A9
:103A30001AAFA3882D68DCB25B060AD02046FFF7D8
:103A40007FFD00283FF40FAF96F8BA30002B3FF40B
:103A50000AAF2946204602F0D5F900236B70EFE645
:103A6000012B08D0032B7FF4FEAE6388002B7FF47C
:103A7000FAAE012103E0618800297FF4F4AE20460C
:103A8000FFF77AFD00287FF4E0AEECE6022829601B
:103A90007FF4F6AE4B883B60D7E600BFE88F282066
:103AA000A290282094F9000062780028BFF66FAF3A
:103AB000002A3FF464AF0A2A7FF4D5AE2A78002AA0
:103AC0003FF4D1AE697804297FF45FAFA9788B42C7
:103AD0007FF45BAF072B96BF9B19002393F8BB3095
:103AE0008CF80030D1E600BF13B5164C237DF3B936
:103AF000E26801ABA1688020019207F0C3FC019A43
:103B0000A3681344A360E3689B1AE3606BB962B1D6
:103B10002369E2889A4208DD94F8C82093FBF2F109
:103B200002FB11330BB90123237502B010BD002332
:103B300080201A461946237502B0BDE8104002F0F5
:103B400047BA00BFE88F282070B5002388B00D4623
:103B500006460593002866D100293ED10B4608226F
:103B600006A907F0BEFE002804DA802002F0AAF8B9
:103B700008B070BD314C069ABDF81E302260079A1D
:103B80002575626004F13802A2609DF91820002AB0
:103B9000C4E9035514DB802B0ED9294B0122294996
:103BA00028460095CDE901532B4607F05BFC8020A9
:103BB00002F088F82846D9E713B1C4E90333D7E700
:103BC000FFF704FD0028D0D0E28823699A42D4BFD1
:103BD000E260E360FFF788FFCAE7184C05ABD4E961
:103BE0000212002A05DC024607F07BFE0028BFDA3D
:103BF000BBE707F076FE002804DA802002F062F8C6
:103C00003046B3E7059AA3681344A360E3689B1AA0
:103C1000E360002BACD104F13803A360FFF7D6FCBE
:103C20000028D7D1A1E78028A2D1044BDA68002A66
:103C3000D0D11B7D002BCDD19AE700BFE88F282083
:103C4000BA1001606CEC0060054B064A5862002017
:103C50009A62054ADA62054A1A63054A9A61704710
:103C6000E88F2820F53700604D340060F53400609F
:103C7000913400602DE9F041044686B04F4D4FF07D
:103C8000FF334FF0FF324E4804F07AFE95F8B8301B
:103C9000002B40F08F806B6ABBB900F0E7F8FFF7AC
:103CA000D3FF6B6A8BB9474A184647490093CDE961
:103CB0000132012207F0D6FB4FF0FF34404804F0F8
:103CC000D7FE204606B0BDE8F08140482C62E8618E
:103CD0006E6A02F0DFFA01F0E9FE041EEEDB00F08E
:103CE000B1FB041EEADB7378012B01D1F37963B9D0
:103CF000374B012234496FF0150402930023184614
:103D0000CDE9003307F0AEFBD8E7002604A885F81C
:103D1000C830ADF812308DF814608DF8106001F0E5
:103D20003BFF041ECADB802704A88DF8107001F049
:103D300033FF041EC2DB2749304602F07FFA041E1F
:103D4000BCDB2449384602F079FA041EB6DB224C6B
:103D5000DFF8888044451AD3002002F095F8041E4D
:103D6000ACDBD5F8C430802043F00103C5F8C43083
:103D700002F08AF8041EA1DBD5F8C430002443F415
:103D80008033C5F8C430012385F8B83096E7276A38
:103D90000026227FF3B29A4201D82434DAE707EBF7
:103DA000C30257F833100136107902F047FA0028A1
:103DB000EFD081E76FF0770480E700BFE88F28201D
:103DC000E4832820D31001606CEC00609136006021
:103DD000F8100160493B0060C8842820EC8428204A
:103DE00030B5204B8BB003F1100505AA18680833D5
:103DF00053F8041C1446AB4203C42246F6D11B7888
:103E00001022002101A8237009F0D0FF1222002106
:103E1000154809F0CBFF102101A802F0F9FD002898
:103E20001DDD082801AB1049B8BF082009381A1851
:103E3000002012F8013F0AAC0130023104EB1314E8
:103E400003F00F03082803F1280314F8144C6B4403
:103E500001F8024C13F8143C01F8013CE9D1024886
:103E60000BB030BD32110160AF9528208B4B2DE98E
:103E7000F04F93F800B08BB0BBF1000F03D088482F
:103E80000BB0BDE8F08F864C00264FF0011AB1460A
:103E90003546374623783BB90234824B9C42F3D1F6
:103EA00001237E4A1370EAE76378052B1ED8DFE80A
:103EB00013F0BC000600F200BC00200052004023BA
:103EC00008A88DF820B0ADF822308DF824B001F0AC
:103ED0003BFE40B1082308A8ADF8223001F034FEC3
:103EE00008B1ADF822B0BDF82230E37123781C444C
:103EF000D0E7E378002BF9D1A3781BB309F10109CE
:103F00005FFA89F9F2E76B689C421DD02435664B55
:103F10009D42F8D3654B0122654902930023039427
:103F20001846CDE9003307F0C8FA0024614B01229E
:103F30005F49204602932346CDE9004407F0BDFACD
:103F400020469DE75C4DE2E7AB68002BD6D04946A2
:103F500020469847D2E7002D65D1584B0095CDE912
:103F600001532B4601225249184607F0A6FADCE716
:103F7000296AA07801EBC2010B79984209D001327D
:103F80002B7F9A42F4D34E4B02930023CDE90033AA
:103F9000E8E74FF00108E0785FFA88F300F00300EB
:103FA0008DF82400207994F805C040EA0C20ADF883
:103FB000220094F90200002827DA08F110004FF0DF
:103FC000010C0CFA00F010EA0A0F26D143F0800031
:103FD0008DF8200008A80592CDE9061301F0B4FD84
:103FE000079BDDE90521C0B99DF8202012F0800F64
:103FF000A2700A714FF0010217BF103302FA08F2E3
:10400000DBB29A404AEA020A70E7012000FA08F09F
:1040100010EA0A0F01D11846DAE708F10108B8F1F1
:10402000100FB8D1ABE70022AAE7032E1BD1FFF790
:10403000D7FE804658B1FEF75DF9024638B1102828
:10404000414604F10200A8BF102209F0A1FE237826
:104050006FF00201E218091B04EB5303D1420BD5A8
:104060000136F6B242E7002EF1D167B9154B009741
:10407000CDE901733B4675E702F801BC13F801096D
:1040800002F8020DEAE7E31B87F80490BB70C3F364
:104090000723FB70E4E7274628E700BFAE952820FA
:1040A00020842820C5842820EC8428204311016026
:1040B00064EC0060DE110160C88428206311016097
:1040C000A4110160C1110160084B00211A4610B50E
:1040D0001C78844204D15C6814B102EB811010BDDD
:1040E000013140330429F3D10020F8E7B4902820AF
:1040F0002DE9F04150F8283C88B0044610F82C6CAB
:1041000010330BD1036950F8202C13F0020542D074
:10411000D2B9590715D5002344F8283C54F8283C57
:1041200010330BD054F8148C54E9077509F078FC5F
:10413000002862D02146374809F056FC08B0BDE897
:10414000F08143F00403036107AB54F8241C3046AC
:1041500007F098F970B1304B02930023CDE90306C4
:10416000CDE90033184601222C4907F0E4F96FF03D
:104170001503D1E7079A54F8243C134444F8243C2F
:1041800054F8203C9B1A44F8203C54F81C3C13443F
:1041900044F81C3CC2E750F8241C07AB304601F041
:1041A0006FFF38B11C4B0095CDE90153CDE90306F3
:1041B0002B46D7E7079D54F8243C2B4444F8243C75
:1041C00054F8203C5B1B44F8203C54F81C3C2B4426
:1041D00044F81C3C002D9ED0304602F061F8B5FB3F
:1041E000F0F303FB1055002D95D154F8203C002B23
:1041F00091D0304601F0CAFF90E744F8180CA4F1C2
:10420000100004F085FC002D98D042463946304617
:10421000A84793E7808B28200C12016074EC0060A3
:104220004B1E012B70B5064686B00D4618D8FFF719
:104230004BFF0446B0B9012D12D105AB01220DF19F
:104240001301304601F01CFF059B002BF5D10F4AEE
:1042500018460F490093CDE90132012207F06BF9AE
:1042600006B070BD09F0DCFB04F12C0108B1012D92
:1042700005D1084606B0BDE87040FFF739BF0548D4
:1042800006B0BDE8704009F0AFBB00BF2912016065
:1042900074EC0060808B28202DE9F04F87B0054634
:1042A00016469846059107F056F900287AD1EFF3A3
:1042B00011830493102383F31288BFF36F8FDFF809
:1042C000FC90834600230022484604F055FC034638
:1042D000B8B9DFF8ECA04FEA8B170AEB8B1BDBF8C1
:1042E000044014F1100F28D1304A31490395009051
:1042F000CDE90102012207F01EF9484604F008FC4E
:1043000012E00BF1010B09F14009BBF1040FD9D107
:10431000284B6FF00B040122254902930023184615
:10432000CDE9003307F007F9049B83F31188BFF34D
:104330006F8F204607B0BDE8F08F109B059ACBF831
:104340001430119BCBF810002846CBF818306FF0D2
:104350000F030AF80750CBF83C80CBF80430CBE9C8
:10436000022601F09DFF68B1284601F099FFB6FBD7
:10437000F0F303FB10662EB1DBF83C3043F004038E
:10438000CBF83C3018F0020F07D007F12C010A4897
:104390000024514409F028FBC6E7284601F0F6FE48
:1043A0000446C1E76FF00F04C3E700BF5E1201606F
:1043B00074EC006043120160808B2820D09028208C
:1043C000B490282010B5EFF31184102383F31288E2
:1043D000BFF36F8FFFF778FE50B14368103307D1FA
:1043E0006FF08B0300F12C014360044809F0FCFAE4
:1043F00084F31188BFF36F8F10BD00BF808B28201E
:10440000F8B50E4C04251027EFF3118687F31288B8
:10441000BFF36F8F6368103307D16FF08B0304F124
:104420002C010748636009F0DFFA86F31188BFF3B7
:104430006F8F013D04F14004E6D1F8BDB49028200F
:10444000808B282070B5094C0025094E3146204646
:1044500009F0AEFA01220135A4F1100040341146F2
:1044600009F06AFA042DF1D1002070BDE0902820F7
:10447000F14000600169012381F84B300B6833B1D2
:1044800091F849301BB10831014809F0ADBA7047C5
:10449000808B28200169012381F84A300B6833B1F1
:1044A00091F848301BB10831014809F09DBA7047B6
:1044B000808B282070B50569EFF31186102383F3F4
:1044C0001288BFF36F8FD5F8500206F089FE0446BC
:1044D00086F31188BFF36F8F30B10022002305F1FE
:1044E0001801024804F0AEFC204670BD808B2820E5
:1044F000012370B582F848300D46136814463BB16D
:1045000092F84A3023B102F108010D4809F06CFA23
:10451000D4F850325A89DB889A4205D17DB904F12A
:1045200018014FF47A7204E004F11801002DF8D05C
:10453000002200230248BDE8704004F083BC70BD37
:10454000808B282070B50E46818804461548C9B274
:10455000154606F0CDFF10B394F900206378002AC9
:1045600016DB202B04D0222B0ED06FF085000AE042
:104570002B681A6840F8102C9A8820F80C2C9B792C
:1045800000F80A3C002070BD638800F8093CF9E798
:10459000212BEAD11038072328603360F2E76FF04F
:1045A0001200F0E7B49128200146044808B506F04F
:1045B000ACFF10B1012300F8073C08BDB4912820DE
:1045C00000210D4A0346A0F84810106883F85C12D9
:1045D000C3F8540290889279A3F8580203F14C0072
:1045E00083F85A224FF4007283F85B12A3F85E122C
:1045F00083F8601209F0DABB90EC006010B500237C
:104600000469C4F8683204F51A720B4BC4F86402EA
:10461000596869B9C3E9002204F10800074909F0A3
:10462000C7F904F11800064909F0EEF9002010BDA1
:104630000A605A60F0E700BFB491282081B500609D
:10464000F946006030B54FF40033426885B0056923
:1046500042F2A1000B4CADF80C1001A9CDE9010309
:10466000002385F85D32106A0A22007906F00AFFFD
:1046700095F85D3223B9012009F089F8013CF7D1A2
:1046800005B030BDA186010073B500230469102573
:104690008DF8071084F84830EFF3118685F31288FF
:1046A000BFF36F8F01220DF10701D4F8500206F01D
:1046B00097FD86F31188BFF36F8F01280AD009F0A8
:1046C000AFF910B994F861326BB9094B1A780AB98D
:1046D00001221A700A22002304F11801054804F08F
:1046E000B1FB02B070BD00210A2009F050FAD3E7F7
:1046F000C1952820808B2820F0B5D0F84C3285B0A9
:1047000005465B681B6A1F7D384606F024FF064697
:1047100060BB95F846324BB3D5F838020146C388E2
:1047200031F80A2F9B1A03AA9BB2B3F5806F28BFFA
:104730004FF4806306F005FD0446B8B1C0F30803EA
:1047400085F8306003B9441EA5F118032246039989
:1047500038460193064B00930223FFF79DFDD5F8E1
:104760003802224600F10A0106F021FD05B0F0BD35
:10477000F144006037B514460A1E054622DD04F1F7
:104780004C01D4F84C0206F02BFD012384F849308B
:1047900023683BB194F84B3023B104F10801114870
:1047A00009F022F9D4F84C229388918912695B1A96
:1047B0009BB2D31AB3F5007F04D2012384F8603290
:1047C00003B030BD94F85E32002BF9D0064B4FF4A5
:1047D000007204F14C012846009301230194FFF775
:1047E0005BFDEDE7808B28207547006073B50D46B3
:1047F00001461C4806F071FE10B30368691EA0F55F
:1048000019745E6805291BD8DFE801F01C1A031C27
:10481000222694F85E1299B90123224684F85E326A
:10482000336A187BFFF7A6FF94F8482042B9336A31
:104830001146187D0C4B019400930223FFF72CFDC9
:1048400002B070BD204602B0BDE87040FFF7B8BEB0
:10485000012384F85F32F3E794F85F32002BEFD046
:104860000023F6E7B4912820F144006037B5094DE4
:1048700000244FF0FF334FF480620749284600942C
:1048800004F0A0FA0549284609F0D0F8204603B004
:1048900030BD00BF808B2820009628209E1201602A
:1048A0002DE9F04780468CB00D46002966D08B6814
:1048B000002401222F46059320464B682646DFF848
:1048C00008A104930B6839490393394BDFF8DC9056
:1048D00002932346CDE9004406F082FF6B69012272
:1048E0003249059320462B690493EB6800940393A7
:1048F000304BCDE90143234606F072FFEB690122FC
:104900002A49039320462C4B0094CDE901432346CA
:1049100006F066FFFB6A0122494610370A93E31C42
:104920000993BB690893A31C07937B690693631CD7
:1049300005933B690096CDE90343002304341846F0
:10494000CDE9016A06F04CFF102CE3D12B6E012259
:1049500016490393194B0096CDE9016300231846CD
:1049600006F03EFFAB69012210490393144B0096F9
:10497000CDE901630023184606F032FFB8F1010FBC
:104980000DD1EFF30583103B4246084903930D4BCD
:10499000029300231846CDE9003306F021FF294693
:1049A00040460CB0BDE8F04703F074BD4CEC00602D
:1049B000A7120160D6120160051301605713016050
:1049C00066130160941301601413016030BFFFF798
:1049D000FDBF00BF2DE9F0410B4E0546DFF83080EA
:1049E000324606EB0807CC1B0849204609F0D0F9EF
:1049F000A019083C4246002109F0D8F907F1080047
:104A00002C67BDE8F08100BF000000008CEC006066
:104A100004000000054B9A699B689A4204D0044A3E
:104A2000536843F080535360704700BF749528204B
:104A300000ED00E0F0B5444B85B00024074602933A
:104A40000E462346012241492046CDE9004406F0A6
:104A5000E2FE3F4B9B6ADB0465D53E4B20460122BC
:104A60003A490094CDE90143234606F0D4FE1720CD
:104A7000374B9B6A1D050AD5374B012233490293F8
:104A800000231846CDE9003306F0C5FE1820304D4E
:104A9000AB6A9C051FD50024304B01222B492046D0
:104AA00002932346CDE9004406F0B5FEAB6BAA6A3B
:104AB00010040FD503930122294B2046234900946B
:104AC000CDE90143234606F0A6FE1FB1AB6A23F4ED
:104AD0000043AB6219201E4B9B6A59050AD5214B36
:104AE00001221A49029300231846CDE9003306F04B
:104AF00092FE1A20164A936A13F4807315D01A4B4B
:104B000001221249029300231846CDE9003306F032
:104B100082FE1B200E4A936A43F47F439362002374
:104B2000337005B0F0BD1620A2E7926A9204F1D569
:104B30000E4A184605490093CDE90132012206F0DC
:104B40006AFE1C20E6E700BFA71301604CEC006082
:104B500000ED00E0BD130160CE130160E1130160C0
:104B6000FA1301600F1401602A14016042140160FD
:104B70001FB50024374B01223749029320462346B4
:104B8000CDE9004406F047FE344B9B6A9A015ED59E
:104B9000334B2046012230490094CDE9014323469E
:104BA00006F039FE1E202D4B9B6ADB010AD52D4BEA
:104BB00001222949029300231846CDE9003306F06B
:104BC0002AFE1F20254B9B6A1C030AD5264B012277
:104BD0002149029300231846CDE9003306F01BFE5D
:104BE00021201E4B9B6A59030AD5204B01221A49EA
:104BF000029300231846CDE9003306F00CFE222074
:104C0000164B9B6A9A030AD5194B0122124902934B
:104C100000231846CDE9003306F0FDFD23200F4B9D
:104C20009B6ADB030AD5134B01220B490293002335
:104C30001846CDE9003306F0EEFD2420074A936ABA
:104C40006FEA03436FEA1343936204B010BD1D2063
:104C5000A9E700BF711401604CEC006000ED00E0BA
:104C6000891401609C140160B6140160D4140160C1
:104C7000F9140160131501602DE9F0434E4B85B026
:104C80000024804602938946234616464B4901225A
:104C90002046CDE9004406F0BEFD494B9B6ADF0685
:104CA00040D5484B2046009401224449CDE90143B8
:104CB0002346112406F0AFFD414B9B6A1D070AD520
:104CC000414B122401223D49029300231846CDE9AD
:104CD000003306F0A0FD3A4DAB6A980724D50024B6
:104CE0003A4B36490122029320462346CDE900443F
:104CF00006F091FD6F6BAB6A190659D5344B012252
:104D00002E49204603970094CDE90143234606F03F
:104D100082FDB9F1000F03D0AB6A23F08003AB62D0
:104D2000132403E01024C7E76FF01507244B9B6A98
:104D3000DA070AD5274B14240122204902930023C5
:104D40001846CDE9003306F066FD1D4B9B6A9B06B5
:104D50000AD5214B15240122184902930023184635
:104D6000CDE9003306F057FD154B9A6AD50602D4FB
:104D70009A6A90070AD55B68190507D541463846F7
:104D800000F072FA10B180F3098802240C4B9A6A81
:104D9000920603D55A6A22F400525A629A6A204651
:104DA00042F0FF029A620023337005B0BDE8F08341
:104DB0006FF01507B4E700BF3E1501604CEC0060D2
:104DC00000ED00E054150160CE130160871501600D
:104DD0009F150160B515016042140160734B2DE908
:104DE000F0415F68A2B005460023C7F3080483F3CF
:104DF0001188BFF36F8F02F07F40B0F17F4F0CD16D
:104E000002F00C00082819D1694A18466949009334
:104E1000CDE90132012206F0FEFC002635464FF0B6
:104E20000008E31E8DF81F80092B00F2A580DFE843
:104E300003F00B999D95A3A3A3A3A3A1120746BFBB
:104E40000D461E460126EAE75B4B01225949574FA2
:104E5000CDF80080CDE901830023184606F0DBFC85
:104E60008DF81F80FC6A14F0020405D0534BCDF876
:104E70000080CDE9018306E0FB6A002B0BDA504B82
:104E80000094CDE90143002301224A49184606F067
:104E9000C2FC00243AE0FB6A5B00FAD5494B0122D0
:104EA000444920460094CDE90143234606F0B3FC73
:104EB0007B69AA6943F480737B61BFF34F8FBFF3B3
:104EC0006F8F7B6932F8022C23F480737B61BFF310
:104ED0004F8FBFF36F8F4DF602739A4209D0BB6AB2
:104EE000DBB26BB30DF11F0201212846FFF7C4FEB0
:104EF00036E02B682046009401220393324B2D4963
:104F0000CDE90143234606F086FC2C689DF81F304E
:104F10009BB96822294608A808F03AFF0F9B002E8B
:104F20003FD0C3F3080222B96FEA53236FEA432349
:104F30000F9308A92046FFF7B3FC22B0BDE8F0812B
:104F4000BB6A13F47F4F05D00DF11F010120FFF75D
:104F500071FD05E0BB6AB3F5803F9AD3FFF708FE09
:104F60000446D3E70DF11F020021BEE70DF11F013A
:104F70000020ECE7154B7AE717F4F87F144A154B3D
:104F8000A4F1100418BF13460A490122CDE90334E5
:104F9000114B029300231846CDE9003306F03BFC89
:104FA00077E723F4FF7323F00103C1E700ED00E08E
:104FB000021601604CEC00602D1601604416016081
:104FC000651601607316016092160160AE160160ED
:104FD000E9150160D4150160D2160160044B5A69CD
:104FE00042F010025A615A6922F008025A61704771
:104FF00000ED00E0EFF30880EFF3098101B57246A0
:10500000FFF7ECFE01BD00BF0B4880F3088806F0F7
:1050100032F9102080F3118808484FF408614018D5
:1050200080F30988EFF314800221084380F3148889
:10503000BFF36F8F00F0ACF800A92820809A2820D9
:10504000084B9B6883420BD1EFF3058343B1064BBA
:105050005A6842F080525A605A6A22F400425A62F8
:1050600004F02EBA7495282000ED00E023498A68E8
:1050700082F8BDE04FF030001044EFF3098C80E877
:10508000F01F1EF0100F03D102F17C0080EC108A9B
:10509000102080F31288BFF36F8F194F4FF0006616
:1050A0008A698A603E60106F164C206092F9BDE0FC
:1050B000506F0023536780F311881EF0100F03D048
:1050C0000023E1EE103A03E002F17C0090EC108A3C
:1050D000EFF3148323F0040383F31488BFF36F8F7B
:1050E00004B5104600F09EF9BDE8044002F130001E
:1050F00090E8F01F8CF30988704700007495282011
:1051000004ED00E0BC9128201EF0040F0CBFEFF36B
:105110000880EFF30980816911F8021C0229FFD091
:1051200001B5724606F06CFB01BD00BF00B200285D
:1051300007DB0123410900F01F00024A834042F8C7
:105140002130704700E100E000B2013100284FEA51
:105150000111C9B206DB00F1604000F5614080F842
:105160000013704700F00F00014B1954704700BF47
:1051700014ED00E0044B054A23F07F039360BFF376
:105180004F8FBFF36F8F70470020006000ED00E08D
:1051900008B5FFF7EFFF114BD3F8882022F4700217
:1051A000C3F88820D3F8882042F4A002C3F88820EE
:1051B0004FF04042C3F83422BFF34F8FBFF36F8FDD
:1051C0000023E1EE103A03F045FA04F0B1FA00F0E2
:1051D000B7F806F048FB03F093FA00BF00ED00E0DB
:1051E00042F8203C203A009B09495360019B21F082
:1051F00001019360029B9161D3604FF08073D36192
:105200000023026543674FF47D43C0F8BC3070470C
:10521000D92C0060037B13F0020F124B03D190F8DE
:10522000BD20D20611D45A6B42F080425A63D0F8A6
:10523000BC3019075CBF43F00803C0F8BC30037BE7
:1052400043F002030373802070475A6B22F08042C0
:105250005A63D0F8BC301A0744BF23F00803C0F8E3
:10526000BC30F0E700EF00E0094A0346906870B1F7
:1052700013F1160F006E05D0A0F180029A4205D8F6
:10528000834203D2814228BF00207047002070472C
:1052900074952820104B9B6883421AD1EFF3058048
:1052A000B8B9EFF31181102282F31288BFF36F8F28
:1052B0001A7B22F002021A73EFF3148323F0040323
:1052C00083F31488BFF36F8F81F31188BFF36F8F5F
:1052D00070476FF0150070477495282015460E46EC
:1052E000002208B5E1EE102AEFF3148222F0040246
:1052F00082F31488BFF36F8FBFF36F8F0B4A0C4B91
:105300009060026F1A6000F08DF82C4686F30988D1
:105310000020044B98472046002100220023024C25
:10532000204700003FB80060D92C00607495282009
:10533000BC912820014B10221A61704700ED00E05B
:10534000002304481021C2180133A02B82F8001357
:10535000F9D1704700E100E008B5EFF30583064A94
:10536000103B02EBC30152F8330049688847BDE89F
:105370000840FFF74FBB00BF44E50060154A70B519
:10538000536913F4803323D1C2F88430BFF34F8FB5
:10539000D2F8803043F6E074C3F3C900C3F34E3350
:1053A0005B0103EA0406014646EA81750139C2F849
:1053B0006052F9D2203B13F1200FF2D1BFF34F8F8F
:1053C000536943F480335361BFF34F8FBFF36F8F43
:1053D00070BD00BF00ED00E00B4B5A6912F40032C3
:1053E00011D1BFF34F8FBFF36F8FC3F85022BFF3BC
:1053F0004F8FBFF36F8F5A6942F400325A61BFF387
:105400004F8FBFF36F8F704700ED00E0024B02211A
:10541000024A034800F09CB800002C20000028201D
:10542000C8EF006010B50446FFF7F4FE03460648D7
:10543000226E0121D21AC0E90023044B8360BDE82B
:10544000104000F08FB800BFC091282000000B155D
:105450001FB5144AD2F89030C3F30723013B98429A
:105460000FD9114B01220390029300230F491846D4
:10547000CDE9003306F008FA6FF0150005B05DF8CD
:1054800004FBC2F898000B6823F01F03034343F0AA
:105490001003C2F89C308B6843F00103C2F8A030BF
:1054A000ECE700BF00ED00E0E916016044EC0060AD
:1054B000F0B50E4689B01F4604460025B54212DA03
:1054C000606838B3BFB1431E18420FD0134B01229E
:1054D00013490293002303951846CDE9003306F0E3
:1054E000D3F96FF01502104609B0F0BD7F28EDD951
:1054F00021680B42EAD1236805A9059306F0B4F9A7
:10550000A3680343D0B20793FFF7A2FF10F1160F71
:10551000E7D0421C01350C34D0E700BF0F17016003
:1055200044EC0060044B0522C3F89420BFF34F8F76
:10553000BFF36F8F704700BF00ED00E0BFF35F8FD8
:10554000024B0022C3F89420704700BF00ED00E03A
:1055500010B5034C01232278FFF7AAFF207010BD7D
:10556000C29528200B4A08B500231278FFF7A0FF48
:1055700010F1160F07D0084A0021D2F89030C3F37B
:105580000723984200DB08BDC2F898000130C2F83A
:10559000A010F2E7C295282000ED00E06A496B48B0
:1055A0002DE9F043D1F8903085B00268C3F30723AA
:1055B0009A4200F2C580FFF7C1FF4B69DB031ED59D
:1055C0000023C1F88430BFF34F8FD1F8803043F609
:1055D000E075C3F3C904C3F34E335B0103EA050767
:1055E000224647EA8276013AC1F87462F9D2203B3A
:1055F00013F1200FF2D1BFF34F8FBFF36F8FD0E9BC
:10560000004100225048A24201F10C011AD1504C35
:10561000684600254F4F2270FDF712FFDFF83881F2
:105620000646DFF83891AE421FD123780020464964
:10563000D1F89020C2F3072293427BDB0020FFF7D2
:1056400071FF4CE0C0F8982051F80C3C23F01F0388
:105650001343013243F01003C0F89C3051F8043C6E
:1056600043F00103C0F8A030CDE700984FEA051CD5
:1056700000EB0511CB683B40B3F5000F44D00AD8CE
:10568000B3F5001F2ED0B3F5800F34D0B3F5801FD3
:1056900010D00135C7E7B3F1807F3ED0B3F1007F72
:1056A000F7D150F80C30886806F0DEF84A6840F40C
:1056B000802009E050F80C30886806F0D5F840F0FA
:1056C00088504A6840F43020039001A92078CDE941
:1056D0000123FFF7BDFE002828DA6FF0150005B0A2
:1056E000BDE8F08350F80C30886806F0BDF84A68D1
:1056F00040EA0800E8E750F80C30886806F0B4F893
:105700004A6840EA0900DFE750F80C30886806F084
:10571000ABF84A6840F08270D6E750F80C308868E1
:1057200006F0A2F84A6840F08870CDE7237801338C
:105730002370AEE7C1F898300133C1F8A00077E7D5
:105740004FF0FF30CBE700BF00ED00E030EF00602E
:10575000C29528200000F0FF00000811000002069A
:10576000F0B587B007460E46144600211022684661
:105770001D4608F01BFB02232A4621468DF8023005
:105780006846044BCDE90476019304F0B7FA07B0FC
:10579000F0BD00BFA9B8006008B5024B1B68984770
:1057A000002008BDCC912820034B044A1860937850
:1057B00043F0020393707047CC912820688328201F
:1057C0000649074821F00701C1F1005208B502F56A
:1057D000301205F039FC002008BD00BF7FB628203C
:1057E000D0912820014807F03DBA00BF008528204D
:1057F00010B58AB00022002300241249CDE9062307
:105800006FF00D034FF4806201F590600094CDE9D4
:105810000334CDE901440C4B03F08CFB0B490C48DD
:1058200008F004F909AA21460A4806F0CCFC002831
:1058300005DB099B22461979186806F0D7FC0AB0E7
:1058400010BD00BF00862820595800603217016043
:10585000808A2820E0EF00602DE9F043894D8BB06D
:10586000894C4FF0FF324FF0FF3307A9284603F071
:1058700025F89DF82420A2F11003052B00F28E805C
:10588000DFE803F00382878C8C7D0026E3680E211D
:10589000A06884F8D46032465B69984748B17B4B76
:1058A00001227B4930460096CDE90163334606F07C
:1058B00008F80023D4F8E4201A44917D6FF34101E5
:1058C0009175D4F8E4201A441833917DB3F5C07F64
:1058D0006FF300019175EDD14023D4F8E420002648
:1058E0000221938205AA0593E368A0685B698DF89D
:1058F0001860984748B1674B0122654930460096C9
:10590000CDE90163334605F0DCFFD4F8E430022131
:10591000A0689A7D6FF341029A75D4F8E420937DD4
:1059200043F001039375802340228DF81630D4F89C
:10593000E4309A8505AAE3685B69984748B1564BFD
:1059400001225349029300231846CDE9003305F0A4
:10595000B8FFD4F8E4300021012093F82E206FF333
:10596000410283F82E20D4F8E42092F82E3043F040
:10597000010382F82E30D4F8E030984771E7002117
:10598000D4F8E0300846F8E7D4F8E03000210520EC
:10599000F3E7D4F8E03000210620EEE7D30903EB6B
:1059A000420303F0FF030F2B0CD93C4B0122384973
:1059B000029300231846CDE9003305F082FF0BB0B7
:1059C000BDE8F083D4F8E47003EB430307AA07EBC8
:1059D000C30603CA47F8330071601068B060D4F89A
:1059E000E41001EBC3031E7AF20902EB460202F057
:1059F000FF07D2B202EB42024FEAC20801EBC20239
:105A0000917D6FF3410191755A6801323FF429AFDE
:105A100093F80990B9F1000F24D1330624D594F8F6
:105A2000D430B3B1012F14D1E36808211C4A5B695B
:105A3000A068984758B11B4B3A4615494846CDF8DF
:105A40000090CDE901934B4605F03BFF09E784F850
:105A5000D4000221D4F8E43043441B6933B130460A
:105A60009847FEE60021F5E70121F3E70E4A1846C4
:105A7000074903960093CDE90132012205F021FF89
:105A8000EFE600BFF8832820008528203B1701603F
:105A90005CEC00605817016082170160AB17016071
:105AA000D4852820C8170160E517016038B5134C6C
:105AB000134BC4F8E43094F8E830D3B9114B04F137
:105AC000080221460220E36001F008FC054690B977
:105AD000024601217120FFF737FB7120FFF726FBFB
:105AE00001232A46294684F8E830E368A0685B6908
:105AF0009847002038BD6FF00400FBE700852820A0
:105B0000DC912820E8EF00601FB50C4B1421DA6807
:105B100083F8D4009868546903F1D402A0470023A5
:105B200050B1074A184607490093CDE901320122D6
:105B300005F0C7FE6FF0150004B010BD00852820E9
:105B4000C81701605CEC00601FB5037803F07F01AB
:105B5000DA09037902EB4102D2B273B969B10B4A97
:105B600018460B490093CDE90132012205F0A9FE48
:105B70004FF0FF3005B05DF804FB0F2A4FF0000333
:105B800001D9044AECE71846F4E700BF07180160A2
:105B90005CEC0060261801602DE9F041027888B0C5
:105BA000424D0446D3094088D5F8E46003EB420334
:105BB000ADF81800207903F0FF01DBB28DF81A2050
:105BC00003EB43030F298DF81B004FEAC30706EBD5
:105BD000C3064FF000038DF81C300DD9344A184627
:105BE00034490093CDE90132012205F06AFE6FF0DD
:105BF000150008B0BDE8F081B37D13F0010853D162
:105C0000EB6803218DF817200DF117025B69A86876
:105C10009847F16821B1284807F052FEC6F80C8079
:105C2000002300226188244802F0E2FD0346F06070
:105C300050B9224A00901F49CDE90102012205F026
:105C400040FE6FF00B00D4E76288002108F0AEF848
:105C5000D5F8E430628802213B44A8689A8206AAFB
:105C6000EB685B69984760B1154B012211490293BB
:105C700000231846CDE9003305F023FE6FF0040041
:105C8000B7E723785A0608D11B0606D4D5F8E430C6
:105C90003B449A7D42F002029A75D5F8E4303B44C9
:105CA0009A7D42F001029A750020A2E70085282023
:105CB000AB1701605CEC0060D08328204A180160BB
:105CC00064180160C30903EB400303F0FF0310B540
:105CD0000F2B86B08DF817000DD9124B01221249F7
:105CE000029300231846CDE9003305F0EAFD6FF07A
:105CF000150006B010BD0D4B0421DA689868546990
:105D00000DF11702A04700230028F2D0084A1846D8
:105D100005490093CDE90132012205F0D2FD6FF073
:105D20000400E6E7AB1701605CEC0060008528200A
:105D3000821801602DE9F041C40986B0054604EBE4
:105D400040048DF8170004F0FF040F2C0ED9284BE7
:105D500001222849029300231846CDE9003305F0BB
:105D6000B0FD6FF0150006B0BDE8F081224E0DF1D8
:105D700017020521F368B0685B699847074660B170
:105D80001E4B01221B49029300231846CDE9003324
:105D900005F097FD6FF00400E5E76A0601D02B06D9
:105DA00001D50020DFE704EB4404D6F8E420F368D3
:105DB000294602EBC402B0684FEAC408DC68938A43
:105DC000D268A04758B10E4B01220A4938460395C4
:105DD0000097CDE901733B4605F073FDDAE7D6F88D
:105DE000E43043449A7D42F002029A75D9E700BF3D
:105DF000AB1701605CEC0060008528209B180160F7
:105E0000B1180160C30903EB400303F0FF030F2B3C
:105E100070B50C4686B00DD9174B01221749029375
:105E200000231846CDE9003305F04BFD6FF0150057
:105E300006B070BD0029F9D00025114B8DF8140073
:105E40000D700721DA689868566905AAADF81650F2
:105E5000B04760B10B4B2846012208490095CDE9B7
:105E600001532B4605F02DFD6FF00400E0E7BDF86F
:105E700016302370DCE700BFAB1701605CEC0060FC
:105E800000852820D61801602DE9FF41C30904468A
:105E900003EB400313F0FF033ED00F2B0ED9234B2F
:105EA00001222349029300231846CDE9003305F06F
:105EB00008FD6FF0150004B0BDE8F0811D4F03EB45
:105EC0004303D7F8E420DE0002EBC302957D15F012
:105ED000020528D1410621D003061FD4FB680146E4
:105EE000B868D3F80C80938AD268C04768B1124B67
:105EF000284601220E4903940095CDE901532B4613
:105F000005F0DFFC6FF00400D5E7D7F8E430334448
:105F10009A7D42F002029A750020CCE7937D43F00F
:105F200002039375F8E76FF07700C4E7AB170160E1
:105F30005CEC006000852820B11801607FB5C409C1
:105F4000054604EB400404F0FF040F2C0DD91C4B54
:105F500001221C49029300231846CDE9003305F0C5
:105F6000B0FC6FF0150004B070BD174EB06890B172
:105F7000F36829461B69984768B1144B01221149FF
:105F80000293002303951846CDE9003305F099FCF0
:105F90006FF00400E7E7D6F8E43004EB4404002097
:105FA00003EBC4039A7D6FF300029A75D6F8E430D0
:105FB00003EBC4039A7D6FF341029A75D3E700BFE8
:105FC000AB1701605CEC006000852820F4180160CC
:105FD0002DE9FF4105461E461046EC0904EB450439
:105FE00004F0FF040F2C0ED9204B02930023012252
:105FF0001F491846CDE9003305F063FC6FF015002A
:1060000004B0BDE8F0812B0601D41A4BEDE71A4F1E
:1060100004EB4404D7F8E43003EBC4039C8ADA6849
:10602000844228BF04460020844215D1FB682946DB
:10603000B868D3F808802346C047002380B10F4AD0
:1060400018460B4903950093CDE90132012205F072
:1060500038FC6FF00400D3E70B5C13540130E3E726
:106060000EB90020CCE73460FBE700BFAB1701603E
:106070005CEC00601019016000852820291901607E
:10608000F0B5C4093C4E85B004EB4004D6F8E4708A
:1060900004F0FF0EE4B204EB44044FEAC40C07EB37
:1060A000C404A57D15F002050DD0344B01223449FE
:1060B000029300231846CDE9003305F002FC6FF08F
:1060C0000F0005B0F0BDBEF10F0F02D810F0800F29
:1060D0000CD02C4B02930023CDE900330122284938
:1060E000184605F0EEFB6FF01500EAE731B97AB11A
:1060F000254B0091CDE901130B46EFE757F80CC093
:1061000067687C1C0BD1002BEDD000221A60EAE7F7
:106110006268511CF7D003B11A600020D1E79742A2
:106120002C4628BF1746A7420ED103B11C60002899
:10613000F3D1D6F8E430587A196890B1CB8843B9D6
:10614000002386F8E930E8E71CF804500D550134C7
:10615000E9E791F90030002B01DA0123F1E702238E
:10616000EFE796F8E9100029D7D09442E8D29B8A4D
:106170009C42E5D3D1E700BF008528204919016082
:106180005CEC00607019016097190160C30903EBB2
:10619000400303F0FF030F2BF0B5044685B001D890
:1061A00002060DD5214B01222149029300231846F6
:1061B000CDE9003305F085FB6FF0150005B0F0BDAB
:1061C0001C4D03EB4303D5F8E420DE0002EBC302D1
:1061D000937D9B0726D430B995F8E93003B3012BA2
:1061E00008BF85F8E900EB682146A868DF68938A54
:1061F000D268B84768B1104B01220D4902930023C1
:1062000003941846CDE9003305F05BFB6FF0040002
:10621000D4E7D5F8E43033449A7D42F002029A750F
:106220000020CBE76FF00F00C8E700BF70190160D6
:106230005CEC006000852820A71901601FB5C30928
:1062400003EB400000F0FF000F280ED90E4B012297
:106250000E49029300231846CDE9003305F031FBC7
:106260006FF0150005B05DF804FB094B93F8E820CA
:10627000002AF5D000EB4000D3F8E43003EBC00374
:1062800000201961EEE700BFAB1701605CEC006015
:1062900000852820014BC3F8E000704700852820C6
:1062A0001FB5C30903EB400000F0FF000F280ED913
:1062B0000B4B01220B49029300231846CDE9003312
:1062C00005F0FFFA6FF0150005B05DF804FB064B12
:1062D00000EB4000D3F8E43003EBC003988AF3E707
:1062E000AB1701605CEC00600085282008B5002237
:1062F0000023024802F08AFA002008BDF883282013
:106300001FB54A882AB1174B02930023CDE9003309
:1063100008E0087910F020030ED0134B0092CDE96D
:106320000123134601221149184605F018FB6FF0AE
:10633000850005B05DF804FB0A78092A0AD00392AB
:1063400018460B4A09490093CDE90132012205F0B4
:1063500006FBECE74A78042A02D0064A0292D5E707
:106360001846E6E7DB190160001A0160ECEB0060FB
:10637000281A0160441A01602DE9F043456889B08C
:10638000D0F81080064605AA0021E8682F6805F0BD
:106390001AFF041E42DB059B00221979186805F0DC
:1063A00025FF0446002839D105A84FF0020906F060
:1063B0007DFEAB79384605A98DF81A302B798DF81A
:1063C0001C306B798DF81D30EB798DF81E908DF8AF
:1063D0001B304FF480730594ADF8183001F0E2F8EB
:1063E0007B6C384623F400537B6406F075FE48B19D
:1063F0000C4B4A460C4920460094CDE90143234604
:1064000005F0ADFAAB6830469847C8F80060D8F898
:1064100050301BB908F1480002F07AFB204609B061
:10642000BDE8F083621A0160ECEB00602DE9FF41EA
:10643000076904460D4648374FF0FF324FF0FF33EF
:10644000384602F099FB2A7C60680A2A24690168B0
:1064500018D00C2A26D0082A4FF0000313D003923C
:106460003E4A0093CDE901326FF0850401223C4998
:10647000184605F074FA384602F04AFB204604B08C
:10648000BDE8F08101234A6C22F00C0242EA83034A
:1064900000224B646B7C052B51D8DFE803F057508A
:1064A00059054C4E0223EEE70121006804F16C0609
:1064B00006F03CFEAB68AC4604F10808C4F898301E
:1064C000BCE80F000FC6DCF8003033600026A6667B
:1064D0002B68002B3ED004F180050FCB85E80F0020
:1064E000E566A4F89060A8B3BFF35B8F58E8003F5F
:1064F00048E80062002AF9D1BFF35B8FD4F880002E
:1065000064220023633046F10001FBF7D9FE00222C
:106510000023CDE9000108F1080003F0FFFA4FF075
:10652000FF324FF0FF3304F1580002F025FB00B1B9
:10653000A066A46E9FE70221B7E70321B5E70393A6
:10654000084B0092CDE9012300238DE70421ACE73D
:106550000021AAE7404605F0ECF9E0E7821A016065
:10656000ECEB00609C1A0160B1F5206F38B5144661
:106570000ED007D8B1F5407F2FD0B1F5806F0BD08A
:10658000002038BDB1F5706F42D0B1F5805FF7D112
:10659000042001F0A9FE0DE01F4DAB6B58030BD496
:1065A0001E4801F0A9FCAB6BC008C3F3C54301331F
:1065B000B0FBF3F02060E3E7194BD3F87032D90653
:1065C00009D4184B1A68AB6BC3F3C5430133B2FB54
:1065D000F3F22260D4E7144AF5E70F4D6B6A5A06CE
:1065E00009D40E4801F088FC6B6A062203F03F03D1
:1065F000B0FBF2F0DBE70A4BD3F87032DB0605D4D0
:10660000084B1A686B6A03F03F03DFE7064AF9E7B5
:10661000022001F0E3FECDE700C00F400D001000A6
:1066200000800D407095282000366E0108B507489F
:1066300007F0BDF838B10648FFF7B6F80448FCF794
:1066400045FB002008BD6FF01200FBE784E200600C
:10665000556600600A2838B50446074D04D1AB687A
:106660000D2128465B689847AB68E1B202485B6839
:106670009847204638BD00BF84E2006070B5456889
:1066800006468AB0286907F092F8034660B9254AA1
:106690006FF0120424490090CDE90102012205F0B7
:1066A00038FA20460AB070BDD5E904018368DB687A
:1066B00003B305AA98470446E0B96A68059BB3FB93
:1066C000F2F102FB1133C3B1184B174903920122B7
:1066D0000090CDE90103034605F01BFA059B01225A
:1066E000114903932046124B0094CDE90143234600
:1066F00005F00FFA6FF01504D3E706A806F028FDA1
:10670000012306A98DF820308DF818306A68059BA2
:10671000B3FBF2F307937368D86800F0AFFFEB693F
:106720009847BEE7FC1A01602CEC00601B1B01605F
:10673000391B016030B5436885B00569DB68546872
:10674000586A69B1104B0122104902930023184680
:10675000CDE9003305F0DDF96FF0150005B030BD6F
:10676000D168C90758BF2418286848B9116829603A
:106770009268AA601C61DA6842F00102DA60EDE713
:106780006FF00F00EAE700BF4A1B01602CEC0060CD
:106790001FB543680069DA6871B10B4B01220B49E0
:1067A000029300231846CDE9003305F0B2F96FF0EB
:1067B000150005B05DF804FBD36823F00103D36036
:1067C00001600846F5E700BF4A1B01602CEC006041
:1067D0001FB544680369E26820680C6884420ED0E3
:1067E0000C4B01220390029300230B491846CDE97C
:1067F000003305F08EF96FF0850004B010BD4868D5
:10680000586000208968D960D36843F02003D360C2
:10681000F3E700BF5D1B01602CEC0060F0B587B0B2
:1068200014460F46456805A9066905F088F9E2682F
:10683000636812F0010F059A08BF9B189A420CD9A1
:10684000234B02930023012222491846CDE900334D
:1068500005F0D5F96FF015001BE0E7B93268002AA2
:1068600033D122683260A2687260E9688A6822F0D7
:1068700002028A60EA6891688807FCD4590CDB033D
:10688000D162EA681363EA68936843F00203936095
:10689000002007B0F0BD012F15D1B268AAB9226857
:1068A000B260A268F260E9688A6B22F002028A6331
:1068B000EA68916B8907FCD49365EA68936B43F0AF
:1068C00002039363E4E7044BBBE76FF00F00E0E7DC
:1068D000901B01603CEC00604A1B01601FB54368DF
:1068E000006971B9D9688A6822F002028A60DA68A0
:1068F000936813F00203FBD10360002005B05DF83C
:1069000004FB01290BD1D9688A6B22F002028A6349
:10691000DA68936B13F00203FBD18360EDE7064B5B
:1069200001220649029300231846CDE9003305F001
:1069300066F96FF01500E1E74A1B01603CEC00606E
:1069400010B5436886B0D3E907018368DB686BB98B
:106950000024094B01220949204602932346CDE930
:10696000004405F01FFA204606B010BD05AA98475E
:106970000028EDD10598F7E7B21B016004EC006038
:106980002DE9F0474468054686B0E06906F00FFF40
:10699000034660B91B4A00901B49CDE90102012260
:1069A00005F000FA6FF0120006B0BDE8F087237C16
:1069B00005A9E0684FF000088DF81430002701F0B9
:1069C00045F9124E2846FFF7BBFFA36981462846CA
:1069D00098476369984501DB0020E5E75FFA88F591
:1069E000206832463B461035A9FB0001FBF768FCE6
:1069F000D4F80CA001382D0108F101084AF805006F
:106A0000E7E700BFCB1B016004EC006040420F00D1
:106A100073B51A4C0829D4F8306428BF0821D4F87B
:106A20003054D4F83024D4F830342D0A12021B0626
:106A300005F47F4502F47F0243EA16632B431343B8
:106A40000093D4F82064D4F82054D4F82024D4F847
:106A500020342C0A1B0604F47F4443EA16632343C4
:106A600014020A4604F47F0423430C46694601934A
:106A700007F08EF9204602B070BD00BF00401F40F5
:106A80002DE9F04F89B0D0F80490D0F810B00C4642
:106A9000D9F800600BF13408CDE900234FF0FF3244
:106AA0004FF0FF33404602F067F8054688BB0C34D0
:106AB00007468246009BBB4228DD14F8042C1007D1
:106AC0004DD482F002035107C3F340034FEA83031E
:106AD00023D42FBB029302F00102019B59468DF88B
:106AE0000E203046ADF80C3002AA54F80C3C069348
:106AF00054F8083CCDE904AA079306F017FC90B1BE
:106B00006FF004055946304600F038FF404601F06A
:106B1000FFFF284609B0BDE8F08F43F00203D9E734
:106B200043F00103D6E74FF0FF334FF0FF320BF194
:106B3000440002F021F8DBF85430002BE0D154F887
:106B4000083C4BB9D9F81000064BB3FBF0F006F047
:106B50001EFE73695B05D3D401370C34AAE76FF0CE
:106B60008505D3E7001BB700F7B543680569C8067C
:106B70001E6804D46FF01504204603B0F0BDCA07A8
:106B8000F8D4C1F3420101390229F3D8104A52F86E
:106B90002170D3E901018368DB68002BEAD001AAE8
:106BA00098470028E6D134354FF0FF324FF0FF33DD
:106BB000284601F0E1FF04460028DDD13A4601995C
:106BC000304606F00AFB284601F0A2FFD4E700BFDA
:106BD000780501602DE9F04145688CB006460769EB
:106BE000D5F80080012207F13400114606F0A4FE1A
:106BF0004FF0FF32002107F1440006F09DFE686867
:106C000006F0D5FD034668B9374A6FF012043749DC
:106C10000090CDE90102012205F0C0FA20460CB037
:106C2000BDE8F08105AA0021A86905F0CCFA041E90
:106C3000F4DB059B00221979186805F0D7FA0446A1
:106C40000028EBD1D5E901018368DB6813B96FF047
:106C50001504E3E704AA98470028F8D105A800F036
:106C6000C5FD6B69049A05A94046089300F0D0FD64
:106C70003B461F4A3946404600F052FE2B691D4AEA
:106C8000934228D01CD81C4A934226D01B4A9342D8
:106C900025D000241A4B0122144902932046234692
:106CA000CDE9004405F07AFA44F010013046FFF7D0
:106CB0005BFF04460028B1D1EB6830469847ADE74A
:106CC000104A93420DD002F5C31202F5206293429E
:106CD000DFD10A24E8E70624E6E70224E4E70424F7
:106CE000E2E70824E0E700BFFC1A016034EC006032
:106CF000BDC1006040420F00A0860100801A06005E
:106D00009F1C016040E13300124B03F1780252E80E
:106D1000002F42F00C0203F1780040E80021002926
:106D2000F3D103F1700252E8002F42F0300203F178
:106D3000700040E800210029F3D103F1780252E805
:106D4000002F42F0300203F1780141E800200028D2
:106D5000F3D1704700C00F404FF0E0230F4910B54A
:106D60009C691A6908689B6902F480320C4934B93D
:106D700093B903464AB90A681044C01A10BD002BE3
:106D800008BF03460AB9A342F5D90A6802440A605B
:106D90004FF0E0221269EEE70446F3E7AC942820B6
:106DA000A89428200A4B1022002083F823204EF6B6
:106DB0006022084B1A604EF65F22074B18604FF0B6
:106DC000E0235A6198611A6942F007021A6170471C
:106DD00000ED00E0AC942820A8942820684620F01C
:106DE00007018D4619B5FFF7B7FF1149114B086828
:106DF000D3E90042001942F10002C3E900020E4A41
:106E000000230B604EF66023D2E90041001BB0FB6B
:106E1000F3F043431B1941F10001C2E9003102F0D4
:106E200083FDFDF7F7FDBDE819408546704700BFBB
:106E3000A8942820688C2820608C28202DE9F04117
:106E4000DFF8F08099B1421C0BD14FF0E0221369BA
:106E500023F0010313614FF07F43C8F80030BDE811
:106E6000F081D8F80060012807DC00270BE0431C04
:106E7000D8F80060F7D14FF48B7040F217139842A6
:106E8000A8BF1846471EEFF31185102383F312881D
:106E9000BFF36F8FFFF760FF224C4FF0E02399693B
:106EA000D4E9002380184FF0000243F10003C4E945
:106EB00000031D4B1A601D4B1A68831A2ED44EF620
:106EC000602C0CFB073303F56A435F33B3FBFCF71D
:106ED000131A40F6A6620CFB0733934238BF1346E1
:106EE000134A934228BF1346C8F800304FF0E022FF
:106EF000013B90695361002381429361A1EB000340
:106F0000D4E9001238BF9B195B1842F10002C4E9B2
:106F1000003285F31188BFF36F8FA0E740F6A663B8
:106F2000E2E700BF688C2820A8942820608C2820E5
:106F30004084FE00AC94282038B5EFF3118510236F
:106F400083F31288BFF36F8F084B1C68084B1B68D4
:106F5000E41AFFF701FF85F31188BFF36F8F4EF638
:106F600060232044B0FBF3F038BD00BF688C2820BC
:106F7000608C282038B5EFF31185102383F3128835
:106F8000BFF36F8F044B1C68FFF7E6FE85F3118893
:106F9000BFF36F8F204438BD688C28202DE9F04F57
:106FA0000D4687B01E46CB094900044600930023D6
:106FB00001F01E010392059341EAD519002800F063
:106FC000FA8003694FEA891803EB891393F8383084
:106FD00013F00103019302D090F89E7027B10127AE
:106FE000384607B0BDE8F08F06F57F5305A83F335C
:106FF000B3F5804F2CBF4FEA933A4FF0010A06F0E9
:1070000047F894F89C30534506D2BFF34F8F05984C
:10701000022706F046F8E3E74FF0000C4FF0800A35
:1070200004EB8901E646A269B6F5804F0296334625
:10703000106828BF4FF48043BEF1000F08BF93468D
:10704000A061F61A94F89C0000F1FF3084F89C00CF
:107050004FF0010010604FF0000050600398704442
:107060009060906800F5805020F47F6020F00F0061
:10707000D060D06800F580501061106900F5805034
:107080005061506900F580509061506863F31E4074
:107090005060D069D2F8089063F31E30C9F30B0931
:1070A000D06120F0004020F47F6020F00F0040EA23
:1070B0000900D06103D1506840F40040506050682E
:1070C0009E446AF307005060C86D002837D0026004
:1070D000CA65002EA7D115F00F021CD10099D1B1BD
:1070E000206900EB080191F83810890713D502993F
:1070F00089B1C18E99420ED950F80810C1F30A41E6
:10710000B3FBF1FE01FB1E332BB950F8083066F3D8
:107110005D7340F80830ED08012305F010051543B4
:10712000AB40BCF1000F24D16268D2F8B0211A4202
:1071300009D0BFF34F8F059805F0B3FF50E7DDF896
:1071400004C0CA61C4E76168D1F8402142F48042BA
:10715000C1F840216268D2F8B801D2F84011490460
:10716000F1D5D2F84011034221F48041C2F8401118
:10717000DFD1226900214244C2F808B022694244AA
:10718000D160BFF34F8F0D496268C2F8B0316268B9
:10719000D2F8B8011842CCD1013905D1BFF34F8FD5
:1071A000059805F07EFF1AE7D2F8BC011842C0D15D
:1071B000C2F8B031EBE7032712E700BF80969800D2
:1071C0002DE9F04F02EB410A4FF0010901EB0213E8
:1071D00085B000EB8A08002741EAC2110546D8F8BD
:1071E0001C4009FA03F94FEA8A1ADFF8ECB024F0E0
:1071F0001F04CEB24FF0FF32CDE9017714B905B0CC
:10720000BDE8F08F019B3BB9A368A18B03EA0B0398
:10721000C1F30B010B4301936368190647D5029232
:107220006968D1F8B43143EA0903C1F8B4316B6835
:10723000D3F8B41111EA090FFAD1D3F8B83113EA2F
:10724000090FEDD16B68C3F8BC91D8F81C30D8F8A1
:107250005C108B423BD1C8F81C700121C8F85C70EF
:107260002B69534499602B695344DF6063681B04A6
:1072700003D4D8F81C301F2B0BD801A928688DF82F
:107280000C608DF80D7005F0B1FA4FF0FF32CDE9CA
:1072900001776760AB69236095F89C30AC6101337E
:1072A00085F89C30D8F81C4024F01F04A6E7E36959
:1072B0006168C3F31233C1F30E418B42C2D36168DC
:1072C000C1F30E415B1A029919440291BAE71B6897
:1072D000C8F81C30CAE700BF00F0FFFF2DE9F043FB
:1072E000871E85B0894690462C49FEB22C4A03463B
:1072F000012E0292CDE9002102F10402039241D94C
:10730000062544E0274C012184F89F3004AB11701E
:1073100003EB8707244A57F8103C6261234A6360F5
:10732000226100F009F904ABA06003EB860656F871
:10733000083CE3606368D3F8402142F00202C3F8DE
:107340004021D3F840219207FBD4D3F8242102F046
:107350001F0112F0180F84F89D101CD0D3F8A8213B
:10736000104822F00302C4F80090C3F8A821D3F813
:10737000A82142F00202C3F8A82105F0E1F9C8F8FB
:10738000004004E00A4A1578002DBBD003252846AA
:1073900005B0BDE8F0830125F9E700BF00022E40EB
:1073A00000002E40B09428200040282000482820CB
:1073B000C395282008B9032070470D4B984202D18D
:1073C0000C4B00221A7042680023C2F84831416811
:1073D000D1F8402122F00102C1F84021416818464D
:1073E000D1F8402142F00202C1F84021704700BFAD
:1073F000B0942820C3952820CB0801F00F022DE976
:10740000F04303F010034D0085B04FF00108134323
:1074100005F01E0500240F4608FA03F845EAD115C9
:1074200006460094002800F082800FFA85F968462D
:1074300006EB850505F02CFE4FF0FF33EA69019459
:1074400022F01F040293D4B9EB692046DFF8E4C0B0
:1074500023F01F03DBB93269012002EB891290602F
:10746000326902EB8912D360BFF34F8F009805F0A9
:1074700018FE002C51D1002005B0BDE8F083E37F59
:1074800043F08003E377246824F01F04DBE793F9DB
:107490001F20002AE8DA5A6812F0800F12D0D6F8BE
:1074A00004E0DEF8B42142EA0802CEF8B4217268A2
:1074B000D2F8B4E11EEA080FFAD1D2F8B82112EAE4
:1074C000080FEBE7019A4AB99A68B3F81CE002EAA0
:1074D0000C02CEF30B0E42EA0E020192EA69E96D4C
:1074E0008A4215D1E861E8655A68120413D4EA6942
:1074F0001F2A98BF01245860B2691A60B36196F8D8
:107500009C30013386F89C30EB6923F01F03A1E720
:107510001268EA61E8E70124EDE7002301A9306879
:107520008DF80C708DF80D3005F060F9A3E703209D
:10753000A2E700BF00F0FFFF82B00E4B01280093CE
:1075400003F58053019312D9831EDBB2012B07D9B7
:10755000831FDBB2012B03D90A38C3B2012B06D833
:1075600002AA02EB830353F8080C02B07047002014
:10757000FBE700BF00900D4000F01F02084B000A1F
:10758000914003EB800003239340DA4310B550E8A9
:10759000003F13400B4340E80034002CF7D110BDEE
:1075A00068C00F4038B50C460546002847D0264B2A
:1075B000984246D003F5804398420CBF0223032330
:1075C000224A032132F91300FFF7D6FF6B6C227AAF
:1075D00003F4604302F003021A43A379DB0203F4CD
:1075E000C0531A43E3791B0203F440731A43637ACE
:1075F0005B0103F060031A43A37A9B0003F00C03C2
:10760000134322780AB143F4803322790AB143F05C
:107610001003E2780AB143F08003A2780AB143F480
:1076200080636B64AB6C627823F041030AB143F072
:10763000400362790AB143F00103AB6438BD0346ED
:10764000BEE70123BCE700BF00400C40A409016075
:1076500000F01F02084B000A914003EB8000032357
:107660009340DA4310B550E8003F13400B4340E825
:107670000034002CF7D110BD68C00F4038B50D465E
:10768000044600283ED0254B98423DD003F5804368
:1076900098420CBF02230323214A032132F913002D
:1076A000FFF7D6FF00232360236843F400432360E1
:1076B00023681B04FCD46B7A2A7ADB0043EA42235A
:1076C000AA7A43EA4213EA7A43EA02132A7B43EA9C
:1076D00082036A7B43EA420323602B78052B15D192
:1076E000236823F4B86343F4A863236062686B687B
:1076F00022F47F62013B22F00F02C3F30B0313431A
:10770000636038BD0346C7E70123C5E722689B01D4
:1077100022F4B86203F4E0731343E6E700C01E40AE
:10772000AA090160002807DB0123410900F01F00BE
:10773000024A834042F82130704700BF00E100E078
:1077400000F01F02084B000A914003EB8000032366
:107750009340DA4310B550E8003F13400B4340E834
:107760000034002CF7D110BD68C00F4070B504463E
:1077700015461846049A0123B2B90A26B4FBF3F45D
:107780004FF47A737143B4FBF3F4094BB3FBF4F396
:10779000B1FBF3F20532B2FBF6F2AA4238BF2A4639
:1077A000904228BF104670BD5B00013AE4E700BF7D
:1077B00040420F00B0B10C4B98420ED003F580430D
:1077C00098420CD003F5804398420AD003F58043D9
:1077D000984214BF05200420704701207047022002
:1077E00070470320704700BF00003F4010B51A22C9
:1077F00004460021023006F0D9FA40F2011323803A
:10780000024BA3600123237610BD00BFA0860100B8
:10781000F7B50446FFF7CEFF3F4B0D460321164652
:1078200033F91000FFF78CFF022300202361206151
:107830006A78AB7882F00102DB0043EA82032361BD
:10784000216A2A7EAB7D21F0070152000B4302F032
:1078500002021A43EB7D9B0003F0040313432362EF
:10786000636AEA7823F0E06323F4007343EA422278
:107870002B791B0603F0E06313436362A065297D47
:10788000A76A39B100900F2301223046FFF76EFF3F
:1078900060F31B67697D41B10023012230460093EC
:1078A0000F23FFF763FF60F31347A7623146AA680F
:1078B000204605F092FC676AE96807F0070779B18E
:1078C00040F6FF73012230460097FFF74FFFA36A8F
:1078D000C0F30B0023F47F6323F00F030343A36281
:1078E000296989B140F6FF730122090A30460097E1
:1078F000FFF73CFFE26A094B22F47F2203EA0023F0
:1079000022F470621343E36223692A7823F00103AF
:107910001343236103B0F0BDB009016000FF0F0005
:10792000F8B50C46054617460021342220461E466F
:1079300006F03CFA28460D4AFFF73CFF0C4B43F893
:1079400020400C4BC4E90B761A60AB6923F47853E2
:1079500023F00303AB61084B33F9100010F1800FE3
:1079600003D0BDE8F840FFF7DDBEF8BD31D40060BC
:107970005495282068952820BA0901600B78A3B196
:10798000836923F4785323F003038361036943F489
:1079900040730361054B42691340B3F1807F02D10C
:1079A0004FF40073036600230B7070470002000160
:1079B00000F01F02084B000A914003EB80000323F4
:1079C0009340DA4310B550E8003F13400B4340E8C2
:1079D0000034002CF7D110BD68C00F400346054AA3
:1079E000002052F8041B994202D001300928F8D136
:1079F000704700BFC00701602DE9F04700260B6803
:107A000004460D464FEA42099E464FEA83084FF06E
:107A1000040C374641F6FF7AB9FBF8F1013198447E
:107A2000C1F34F01514528BF5146012938BF0121FB
:107A30000CFB01F0B2FBF0F0834234BFC01A181AFD
:107A4000704598BF5FFA8CF60CF1010C9CBF86461E
:107A50000F46BCF1210FDFD16422B3FBF2F303EB3D
:107A600043037345C0F08C802046FFF7B7FF464BB9
:107A7000032133F91000FFF79BFFA368321F013E7B
:107A800043F00203032A4FEA0666A360A36806F0E8
