:0200000460009A
:10000000464346420004015600000000010303007D
:1000100000000000000000000000000000000000E0
:1000200000000000000000000000000000000000D0
:1000300000000000000000000000000000000000C0
:1000400000000000000406000000000000000000A6
:100050000000800000000000000000000000000020
:100060000000000000000000000000000000000090
:100070000000000000000000000000000000000080
:10008000EB04180A063204260000000000000000FD
:100090000000000000000000000000000000000060
:1000A0000000000000000000000000000000000050
:1000B0000000000000000000000000000000000040
:1000C0000000000000000000000000000000000030
:1000D0000000000000000000000000000000000020
:1000E0000000000000000000000000000000000010
:1000F0000000000000000000000000000000000000
:1001000000000000000000000000000000000000EF
:1001100000000000000000000000000000000000DF
:1001200000000000000000000000000000000000CF
:1001300000000000000000000000000000000000BF
:1001400000000000000000000000000000000000AF
:10015000000000000000000000000000000000009F
:10016000000000000000000000000000000000008F
:10017000000000000000000000000000000000007F
:10018000000000000000000000000000000000006F
:10019000000000000000000000000000000000005F
:1001A000000000000000000000000000000000004F
:1001B000000000000000000000000000000000003F
:1001C000000100000010000000000000000000001E
:1001D000000004000000000000000000000000001B
:1001E000000000000000000000000000000000000F
:1001F00000000000000000000000000000000000FF
:1002000000000000000000000000000000000000EE
:1002100000000000000000000000000000000000DE
:10100000D10020410020006000000000000000002E
:1010100020100060001000600000000000000000D0
:10102000000000600469010000000000FFFFFFFFF6
:1010300000000000000000000000000000000000B0
:1010400000000000000000000000000000000000A0
:101050000000000000000000000000000000000090
:101060000000000000000000000000000000000080
:1020000080B42820314000604BA100601D4000607A
:102010001D4000601D4000601D4000600000000089
:10202000000000000000000000000000F54000601B
:102030001D40006000000000954000602D6E0060B3
:102040007142006071420060714200607142006044
:102050007142006071420060714200607142006034
:102060007142006071420060714200607142006024
:102070007142006071420060714200607142006014
:1022C00053B94AB9002908BF00281CBF4FF0FF319D
:1022D0004FF0FF3000F00CB8ADF1080C6DE904CE02
:1022E00000F010F8DDF804E0DDE9022304B07047E7
:1022F000704700BF034613F8012B002AFBD1181AC0
:10230000013870472DE9F04786468C460846089EFE
:10231000154674461946002B40F0C2808542B2FA39
:1023200082F245D94AB1C2F1200300FA02FC2EFA2A
:1023300003F3954043EA0C0C94404FEA154EA8B2C3
:10234000BCFBFEF8230C0EFB18CC08FB00F943EA9B
:102350000C43994528D9EB1808F1FF3704D2994569
:1023600002D9A8F102072B44A3EB0903A4B2B3FBE3
:10237000FEFC0EFB1C330CFB00F044EA0344A042BD
:1023800014D92C190CF1FF3304D2A04202D9ACF1BC
:1023900002032C44241A43EA07401EB1D440002310
:1023A00034607360BDE8F0874746DDE76346F1E7D8
:1023B00092BB431B01214FEA154EAFB2B3FBFEFCAB
:1023C000200C0EFB1C330CFB07F840EA0343984536
:1023D00062D9EB180CF1FF3004D2984502D9ACF168
:1023E00002002B44A3EB0803A4B2B3FBFEFC0EFBDC
:1023F0001C330CFB07F744EA0344A7424ED92C19BF
:102400000CF1FF3304D2A74202D9ACF102032C44F1
:10241000E41B43EA0040C0E7C2F1200320FA03F1C5
:10242000954090402EFA03F303434FEA154EAFB2A6
:10243000B1FBFEFC0EFB1C10190C0CFB07F841EA6B
:102440000041884504FA02F422D969180CF1FF30E2
:1024500004D2884502D9ACF102002944A1EB08015D
:102460009BB2B1FBFEFC0EFB1C110CFB07F743EA11
:1024700001439F420ED9EB180CF1FF3104D29F4269
:1024800002D9ACF102012B44DB1B41EA004192E787
:102490006046E3E76146F7E76046A3E76346B7E7D0
:1024A000834206D916B9002108467BE7C6E900E059
:1024B000F9E7B3FA83F78FB9834201D3724508D89D
:1024C000BEEB020460EB030301209C461EB9002111
:1024D00068E73846FAE7C6E9004CF8E7C7F1200C90
:1024E000BB4022FA0CF41C432EFA0CF120FA0CF338
:1024F000B84001434FEA14490EFA07F5B3FBF9F867
:102500001FFA84FE09FB18300B0C08FB0EFA43EA95
:1025100000439A4502FA07F240D9E31808F1FF3068
:1025200004D29A4502D9A8F102002344A3EB0A037E
:1025300089B2B3FBF9F809FB183308FB0EFE41EA38
:1025400003418E452CD9611808F1FF3304D28E4522
:1025500002D9A8F10203214443EA0040A0FB0298FB
:10256000A1EB0E014145CE46434602D306D14D456F
:1025700004D2B9EB020E68EB04030138002EA6D09A
:10258000B5EB0E0261EB030101FA0CFC22FA07F332
:102590004CEA0303F940C6E9003198E74046C5E735
:1025A0004346D9E7000000002DE9F04F43680F468D
:1025B00087B002691E6882468B88590902911168AA
:1025C0008F4200F0068113F40063F98840F0058122
:1025D000029810F03E0F00F0038100F01F00012868
:1025E00000F0FE80032900F2FB80B365B36131691E
:1025F00041F002013161316941F44071316133616F
:10260000336913F00108FBD11760BC88F8886304B4
:10261000DAF8041046BF0830012343460D6848BF6E
:102620008340E00791F8210058BF43F0010308B14F
:1026300043F0806391F8201043EA01636B62BB882A
:1026400013F0010340F0C280146F0725D7F8009003
:102650009B46CDE9003319FA05F200F0B380601E05
:102660004FF000034BF1FF31801841F10001FFF7FB
:1026700027FE02280A46034671F100013CBF0223EF
:102680000022023B42F1FF32B3F5807F72F100027B
:1026900028BFFF239A1CAA40B4FBF2F2424506D39E
:1026A000914504D3E9B29046DBB20191009335B174
:1026B000013D0223AB40B4FBF3F34345CBD2DAF840
:1026C00004B04FF00008DFF82891019B4146DBF889
:1026D00010004D46DC4044A3D3E90023E4FB005145
:1026E00028464D46FFF7ECFD431EDBF8140003932C
:1026F00061F1000341460493E4FB005128463AA3EC
:10270000D3E90023FFF7DCFD451EDBF8180061F17B
:10271000000341460593E4FB0091484632A3D3E908
:102720000023FFF7CDFD039B0238049A61F10001FD
:10273000B3F5807F72F10002059A28BFFF23B5F53B
:10274000807F72F100084FEA0343009A28BFFF25FB
:10275000B0F5807F43EA056371F1000143EA0203AB
:1027600028BFFF2043EA00233364336943F00103A9
:102770003361029BBA8803F03F01100793070829D1
:1027800000F080404FEAC24203F0004302F400022E
:1027900043EA0003504643EA0203FA884FEA026222
:1027A00002F0407243EA02030A4638BF0822013AA7
:1027B0001343019A43EAC263336607B0BDE8F04FA2
:1027C00008F0ABB840F20110002152E7002301935A
:1027D000CBE7002007B0BDE8F08F6FF08500F9E788
:1027E0006FF01500F6E700BF00CA9A3B000000003A
:1027F000FFC99A3B2DE9F04F0020C7B000F012FD51
:10280000002142F2107009F08EF9434807F050FAA7
:10281000424808F0A4FF0446002875D000243F4D2C
:102820004FF0FF384FF0FF393D4807F041FA3D497E
:102830000DF1110A39480DF1120707F0CAF8AE6818
:1028400006A9CDF80CA00297FF223448CDE90089F3
:10285000F36898470228014603DC334807F028FA5A
:10286000E5E79DF818B0BBF1010F20D102232846FF
:102870002E498DF81430BDF81930ADF8153007F039
:10288000A8F8736805A9032228469847284A294BC7
:10289000BDF8191033EA200328BF134626480093D9
:1028A0009AF90030B7F9002007F002FABFE7BBF150
:1028B000030F09D10134214B214A6343B2EBB30F1B
:1028C000B5D321461F48C9E7BBF1040FAFD1BDF80E
:1028D000192021461C4807F0EBF98DF814B0ADF82B
:1028E000154000214FF47A7009F01DF90F49284670
:1028F000002407F06EF87368032205A9284698475C
:10290000124807F0D5F992E7114807F0D1F92046AF
:1029100047B0BDE8F08F00BFB5E00060A4C2006022
:10292000E5E00060708228200FE1006080822820AE
:10293000AAE00060B2E0006029E10060CDCCCCCC20
:10294000CCCCCC0C54E1006078E10060F7E0006092
:10295000CDE00060014B1B68184700BF9082282023
:10296000014B1860704700BF9082282030B585B0B9
:1029700004460D4610220021684609F0F2FA0223AF
:102980002A4621468DF802306846034B019306F033
:10299000C3FD05B030BD00BF5529006080B50546B8
:1029A0000E461746984606F07DF9DFF8209003465C
:1029B00009F042FB0446424649F8003039463046A9
:1029C000A84754F8090001F04FFB00BF08000000C1
:1029D00038B5304A304B1A604FF400422F4B1A6022
:1029E0002F4B9A6922F4405242F480529A615A69FC
:1029F00042F000725A619A6C9006FCD4294AD3685E
:102A000023F01F0343F01303D3601368002BFCDA99
:102A1000254804F075FE224B1A6922F0070242F0A5
:102A200001021A619A6CD103FCD45A6922F4E05273
:102A30005A611B4B9A6C9207FCD45A69184C42F4A9
:102A400040725A619A6942F440229A615A6922F0AE
:102A500000725A61A56C15F02005FBD1A3692846C8
:102A6000124923F0300343F01003A361A36923F05C
:102A7000E053A36104F088FE0C49284604F018FED8
:102A80000B4A0449022008F0FEFD636D23F00303A6
:102A9000636538BD00366E01049528200095282016
:102AA00000C00F400000084080C8006000389C1C37
:102AB00008842820014B036000207047B4C80060E0
:102AC0000D4BF0B40D4E5F6A0D4BB34203D36FF064
:102AD0008500F0BC70475C68BC420AD31D6945B1F3
:102AE00094F802C08488E4B2A44502D12B46F0BC1D
:102AF00018472433E9E700BF308E2820808528203E
:102B00005C8528202DE9F04705460E461746134CF4
:102B1000DFF84C80DFF84C90444503D36FF085001C
:102B2000BDE8F0876268D9F824309A4213D3A369CC
:102B30008BB1A9889078C9B2884205D13A4631460E
:102B40002846BDE8F04718475279012A03D13A4692
:102B50003146284698472434DEE700BF5C852820AC
:102B600080852820308E28202DE9F04105460E462C
:102B700017460A4CDFF82880444502D36FF08500E1
:102B800009E063690BB92434F6E73A463146284632
:102B900098470028F7D1BDE8F08100BF5C85282068
:102BA0008085282010B5044601F0D8FF10F1780F79
:102BB00000D050B9054A204607F023F9D2F8C430B6
:102BC00023EA00030020C2F8C43010BD308E282054
:102BD000024B00221A605A60704700BFEB8E28201B
:102BE00070B50B4B0B4CA34201D3002070BD196A8A
:102BF00000221E7F0439D5B2AE4201D82433F2E759
:102C0000013211F832508542F5D10120EEE700BFC4
:102C10005C8528208085282073B584880D46E4B221
:102C200063068DF8074007D02046FFF7D9FF78B13B
:102C30000D4B93F8BA0058B10B4E204655B101F038
:102C4000D5FEF3691BB10DF107010820984701205B
:102C500002B070BD01F0E8FEF369002BF7D00DF172
:102C600007010920F2E700BF308E2820094808B587
:102C70000378C3F341130A3350F823303BB100F11A
:102C8000080200F110019847C043C00F08BD184664
:102C9000FCE700BF308E282004282DE9F14F0446C0
:102CA0000F46DFF8949016D001282DD1DFF88C80E4
:102CB00098F8B93043B3224D00F0DCFD4D4520D2E9
:102CC000D5F820B04FF0000A2B7F5FFA8AF6B342A6
:102CD00004D82435F2E7FFF77BFFE7E70BEBC606E6
:102CE0000AF1010A307901F039FF0246307907F024
:102CF00088F8D8F8C430002A23EA0003C8F8C430A2
:102D0000E2DA002388F8B9300D4D4D4508D30B4B5E
:102D10001B6A6BB13946204601B0BDE8F04F184739
:102D2000EB681BB13A462146284698472435ECE724
:102D300001B0BDE8F08F00BF80852820308E2820AC
:102D40005C85282073B586781E4C8DF80060037969
:102D5000427943EA0223ADF80230C378304603F0EB
:102D600003038DF8043007F04CF8D4F8C43005465E
:102D700018420BD0304600F05FFD3046FFF712FFDF
:102D800008F01CFE10B9962008F0F5FE684601F028
:102D9000BBFD10F1780F03D010B1002002B070BD60
:102DA0009DF8000001F0A0FE10F1780F01D000287E
:102DB000F3D1D4F8C43001202B4384F8B900C4F80F
:102DC000C430EBE7308E28202DE9F047A84E0446AA
:102DD0000F461546B369FBB9237803F01F03012B97
:102DE00000F09E80022B00F0068133BB94F90000B6
:102DF0002A680028617834DA062912D008292BD0F5
:102E0000D9B901235170137096F8C3305B0043F0B9
:102E100001031370022328E198470028DCD1002029
:102E20000DE06288100A011F8446012905D9072890
:102E300003D8D2B2716A0C781CB96FF01500BDE8E6
:102E4000F0874E78664503D19A4200F0098101333C
:102E50002144F0E70B7808E196F8BA3013700123AB
:102E600003E101390829E8D801A353F821F000BF94
:102E70000B2F00603B2E0060192F00603B2E00607E
:102E8000952E00603B2E00603B2E00603B2E0060C4
:102E9000A32E00606088C0B201F022FD0028BED0E1
:102EA000CBE76388756A63BBFFF792FE638886F899
:102EB000BA30F369002BB2D06E4903209847AEE7D1
:102EC0006B78042B10D0052B11D0022B04D16F7915
:102ED0006388BB4208BF01202B781D442B78002B50
:102EE000EED10028A9D0DFE795F80380F4E76388E6
:102EF000BB42F1D1B8F1000FEED12846FFF722FF17
:102F0000EAE7FF270020B846E8E76388012B94D161
:102F1000002386F8C33082E76388012B8DD1F8E760
:102F200096F8BA30D5F800C0002B86D0A388756A11
:102F30005FFA83FE2A46107800283FF47EAF51786E
:102F4000022904D192F80480F04500F295800244F1
:102F5000F1E78CF800208CF8012039605FE7154418
:102F600096E00B2A7FF469AF00274FF0FF08BA46BE
:102F7000C14606E06B78042B0FD0052B21D02B78AF
:102F80001D442B78002BF5D1F36913B1514607206E
:102F90009847002F7FF443AF4FE795F80280A3884E
:102FA00095F803909845EAD163889945E7D1B8F13F
:102FB000070F1DD806EB0803AA46012783F8BB902C
:102FC000DDE7A3884345DAD16388DBB24B450AD0FD
:102FD000AF78384600F030FC3846FFF7E3FDB0FA32
:102FE00080F77F09CBE72846FFF7ACFE0746C6E728
:102FF000AA460027C3E794F900206378002A19DA6B
:10300000002B7FF41AAFA3882D68DCB25B060AD0D0
:103010002046FFF7E5FD00283FF40FAF96F8BA30E1
:10302000002B3FF40AAF2946204601F037FD00236C
:103030006B70EFE6012B08D0032B7FF4FEAE6388A4
:10304000002B7FF4FAAE012103E0618800297FF4B0
:10305000F4AE2046FFF7E0FD00287FF4E0AEECE69A
:10306000022829607FF4F6AE4B883B60D7E600BFAC
:10307000308E2820EA8E282094F9000062780028FB
:10308000BFF66FAF002A3FF464AF0A2A7FF4D5AED3
:103090002A78002A3FF4D1AE697804297FF45FAF23
:1030A000A9788B427FF45BAF072B96BF9B19002357
:1030B00093F8BB308CF80030D1E600BF13B5164C46
:1030C000237DF3B9E26801ABA1688020019206F08C
:1030D000A7FE019AA3681344A360E3689B1AE36008
:1030E0006BB962B12369E2889A4208DD94F8C8207E
:1030F00093FBF2F102FB11330BB90123237502B0EC
:1031000010BD002380201A461946237502B0BDE881
:10311000104001F051BD00BF308E282030B5002393
:1031200085B002460D460193002858D1002935D1BB
:1031300008220B460DEB020107F051F8002804DAD3
:10314000802001F053FC05B030BD2A4C029ABDF836
:103150000E302260039A2575626004F13802A26085
:103160009DF90820002AC4E903550ADB802B04D905
:10317000802001F03BFC0020E3E713B1C4E90333F6
:10318000E1E7FFF773FD0028DAD0E28823699A426D
:10319000D4BFE260E360FFF791FFD4E7154C01ABC9
:1031A000D4E90215002D04DC07F019F80028CADA6A
:1031B000C6E72A4607F013F80028D9DB019AA3686E
:1031C0001344A360E3689B1AE360002BBBD104F1B6
:1031D0003803A360FFF74AFD0028DCD1B0E7802860
:1031E000B1D1044BDA68002AD5D11B7D002BD2D196
:1031F000A9E700BF308E2820054B064A5862002000
:103200009A62054ADA62054A1A63054A9A6170476A
:10321000308E2820C92D0060C12A0060692B006013
:10322000052B00602DE9F3410446474D4FF0FF3375
:103230004FF0FF32454804F08FFF95F8B830002B6F
:103240007BD16B6A83B142482C62E8616E6A01F0FF
:103250009BFD01F017FB041E10DA3C4804F0F4FF5C
:10326000204602B0BDE8F08100F0C0F8FFF7C4FFCF
:103270006B6A002BE7D14FF0FF34EEE700F01CFB48
:10328000041EEADB7378012B5AD1F379002B57D057
:103290000026684685F8C830ADF802308DF8046025
:1032A0008DF8006001F030FB041ED6DB80276846F5
:1032B0008DF8007001F028FB041ECEDB2549304656
:1032C00001F048FD041EC8DB2249384601F042FDEA
:1032D000041EC2DB204CDFF8848044451AD3002052
:1032E00001F002FC041EB8DBD5F8C430802043F0A6
:1032F0000103C5F8C43001F0F7FB041EADDBD5F8BF
:10330000C430002443F48033C5F8C430012385F869
:10331000B830A2E7276A0026227FF3B29A4201D88A
:103320002434DAE707EBC30257F83310013610797B
:1033300001F010FD0028EFD09DE76FF077048CE7D7
:103340006FF0150489E700BF308E28207484282090
:10335000992C00601D3100605C8528208085282024
:1033600030B5204B8BB003F1100505AA186808335F
:1033700053F8041C1446AB4203C42246F6D11B7812
:103380001022002101A8237008F0EBFD1222002179
:10339000154808F0E6FD102101A801F065FD0028A0
:1033A0001DDD082801AB1049B8BF082009381A18DC
:1033B000002012F8013F0AAC0130023104EB131473
:1033C00003F00F03082803F1280314F8144C6B448E
:1033D00001F8024C13F8143C01F8013CE9D1024811
:1033E0000BB030BDBFE100603D952820734B2DE947
:1033F000F04F93F800B087B0BBF1000F03D07048D6
:1034000007B0BDE8F08F6E4C00264FF0011AB046B1
:103410003546B14623783BB902346A4B9C42F3D11E
:103420000123664A1370EAE76378052B1BD8DFE8AF
:1034300003F08C03C28C1D39402304A88DF810B012
:10344000ADF812308DF814B006F0B6FE40B1082386
:1034500004A8ADF8123006F0AFFE08B1ADF812B016
:10346000BDF81230E37123781C44D3E7E378002BD6
:10347000F9D1A3786BB108F101085FFA88F8F2E797
:103480006B689C4207D024354F4B9D42F8D30020F7
:10349000B6E74E4DF8E7AB68002BECD0414620462E
:1034A0009847E8E7002DF2D000222B7F9A42EED217
:1034B000296AA07801EBC2010B79984201D0013250
:1034C000F3E70127E078FBB200F003008DF8140069
:1034D000207994F805C040EA0C20ADF8120094F968
:1034E0000200002826DA07F110004FF0010C0CFA58
:1034F00000F010EA0A0F24D143F080008DF810008C
:1035000004A80192CDE9021306F056FE039BDDE903
:103510000121B0B99DF8102012F0800FA2700A713D
:103520004FF0010217BF1033BA40DBB29A404AEAAB
:10353000020A98E70120B84010EA0A0F01D11846A4
:10354000DCE70137102FBDD1B9E7032E1BD1FFF700
:1035500007FF074658B1FEF7CDFE024638B11028E6
:10356000394604F10200A8BF102208F0ECFC2378D1
:103570006FF00201E218091B04EB5303D14213D58B
:103580000136F6B26FE7002EF1D1B9F1000F3FF42A
:103590007EAFA4EB090389F8048089F80230C3F3F5
:1035A000072389F80330EBE702F801BC13F801099F
:1035B00002F8020DE2E7A14655E700BF3C9528203E
:1035C000B88428205B852820808528205C852820D9
:1035D000094B00211A4610B51C78844205D15C685D
:1035E0001CB1482303FB012010BD013148330429DD
:1035F000F2D10020F8E700BFFC8E28202DE9F3412E
:1036000050F8303C044610F8346C10330AD103698A
:1036100050F8282C980736D5D2B9590715D500236C
:1036200044F8303C54F8303C10330BD054F81C8C28
:1036300054E9097508F0C2F900284FD021462E48F8
:1036400008F0A0F902B0BDE8F08143F00403236163
:1036500001AB54F82C1C304606F0E2FB10B16FF0C1
:103660001503DDE7019A54F82C3C134444F82C3C34
:1036700054F8283C9B1A44F8283C54F8243C134442
:1036800044F8243CCEE701AB54F82C1C304601F042
:10369000C5FA0028E3D1019D54F82C3C2B4444F892
:1036A0002C3C54F8283C5B1B44F8283C54F8243C40
:1036B0002B4444F8243C002DB1D0304601F06AFB85
:1036C000B5FBF0F303FB1055002DA8D154F8283CAE
:1036D000002BA4D0304601F003FBA3E744F8200CF4
:1036E000A4F1180004F000FE002DABD0424639468C
:1036F0003046A847A6E700BF408B28204B1E012B71
:1037000073B506460D460FD8FFF762FF044668B949
:10371000012D09D101AB01220DF10301304601F069
:103720007DFA019B002BF5D102B070BD08F046F97F
:1037300004F1340108B1012D05D1084602B0BDE8FD
:103740007040FFF75BBF034802B0BDE8704008F06F
:1037500019B900BF408B28202DE9F74F8046174646
:103760009946009106F0A2FB044600285BD1EFF3D6
:10377000118B102383F31288BFF36F8F2B49002224
:1037800008460023019104F0E9FD019968B9482237
:10379000DFF89CA062430AEB02056E6816F1100F79
:1037A00011D1084604F0A0FD05E001344831042C95
:1037B000E5D16FF00B068BF31188BFF36F8F3046A6
:1037C00003B0BDE8F08F0AF802800C9A009B6A6192
:1037D0000D9A28614046AA616FF00F02C5F8449027
:1037E0006A60C5E9023701F0D5FA58B1404601F0E8
:1037F000D1FAB7FBF0F202FB10771FB16A6C42F00E
:1038000004026A6419F0020F08D048220948002611
:1038100002FB04A1343108F0B5F8CCE7404601F0D2
:103820005FFA0646C7E76FF00F06C8E7188F282033
:10383000FC8E2820408B282010B5EFF31184102334
:1038400083F31288BFF36F8FFFF7C2FE50B1436856
:10385000103307D16FF08B0300F13401436004484B
:1038600008F090F884F31188BFF36F8F10BD00BF8C
:10387000408B2820F8B50E4C04251027EFF3118655
:1038800087F31288BFF36F8F6368103307D16FF02F
:103890008B0304F134010748636008F073F886F382
:1038A0001188BFF36F8F013D04F14804E6D1F8BDE4
:1038B000FC8E2820408B282070B5094C0025094E2D
:1038C0003146204608F042F801220135A4F11800E3
:1038D0004834114607F0FAFF042DF1D1002070BDE5
:1038E000308F2820FD3500600169012381F84B30BD
:1038F0000B6833B191F849301BB10831014808F029
:1039000041B87047408B28200169012381F84A3073
:103910000B6833B191F848301BB10831014808F009
:1039200031B87047408B282070B50569EFF31186D8
:10393000102383F31288BFF36F8FD5F8500206F07F
:1039400013FA044686F31188BFF36F8F30B100225B
:10395000002305F11801024804F06CFE204670BDFA
:10396000408B2820012370B582F848300D4613683B
:1039700014463BB192F84A3023B102F108010D48D8
:1039800008F000F8D4F850325A89DB889A4205D101
:103990007DB904F118014FF47A7204E004F11801C2
:1039A000002DF8D0002200230248BDE8704004F04A
:1039B00041BE70BD408B282070B50E4681880446FC
:1039C0001548C9B2154606F04EFA10B394F9002016
:1039D0006378002A16DB202B04D0222B0ED06FF048
:1039E00085000AE02B681A6840F8102C9A8820F8A5
:1039F0000C2C9B7900F80A3C002070BD638800F80D
:103A0000093CF9E7212BEAD11038072328603360FD
:103A1000F2E76FF01200F0E71C90282001460448FE
:103A200008B506F02DFA10B1012300F8073C08BDD7
:103A30001C90282000210D4A0346A0F84810106869
:103A400083F85C12C3F8540290889279A3F8580264
:103A500003F14C0083F85A224FF4007283F85B1292
:103A6000A3F85E1283F8601208F07BBA78C8006091
:103A700010B500230469C4F8683204F51A720B4BC0
:103A8000C4F86402596869B9C3E9002204F1080066
:103A9000074907F05BFF04F11800064907F082FFB1
:103AA000002010BD0A605A60F0E700BF1C9028207B
:103AB000D79E00606D3B006030B54FF40033426824
:103AC00085B0056942F2A1000B4CADF80C1001A9BC
:103AD000CDE90103002385F85D32106A0A220079DE
:103AE00006F09EF995F85D3223B9012007F027FE14
:103AF000013CF7D105B030BDA186010073B50023AC
:103B0000046910258DF8071084F84830EFF311860A
:103B100085F31288BFF36F8F01220DF10701D4F8EE
:103B2000500206F021F986F31188BFF36F8F012848
:103B30000AD007F043FF10B994F861326BB9094B12
:103B40001A780AB901221A700A22002304F1180116
:103B5000054804F06FFD02B070BD00210A2007F097
:103B6000E2FFD3E74F952820408B2820F0B5D0F80E
:103B70004C3285B005465B681B6A1F7D384606F0EF
:103B800095F9064660BB95F846324BB3D5F8380236
:103B90000146C38831F80A2F9B1A03AA9BB2B3F5DA
:103BA000806F28BF4FF4806306F08FF80446B8B1E9
:103BB000C0F3080385F8306003B9441EA5F118036B
:103BC0002246039938460193064B00930223FFF7E0
:103BD000C3FDD5F83802224600F10A0106F0ABF821
:103BE00005B0F0BD6539006037B514460A1E0546BC
:103BF00022DD04F14C01D4F84C0206F0B5F80123A3
:103C000084F8493023683BB194F84B3023B104F178
:103C10000801114807F0B6FED4F84C229388918928
:103C200012695B1A9BB2D31AB3F5007F04D2012349
:103C300084F8603203B030BD94F85E32002BF9D0C6
:103C4000064B4FF4007204F14C0128460093012307
:103C50000194FFF781FDEDE7408B2820E93B0060F0
:103C600073B50D4601461C4806F0F2F810B3036820
:103C7000691EA0F519745E6805291BD8DFE801F0FC
:103C80001C1A031C222694F85E1299B901232246BD
:103C900084F85E32336A187BFFF7A6FF94F8482059
:103CA00042B9336A1146187D0C4B019400930223EC
:103CB000FFF752FD02B070BD204602B0BDE8704073
:103CC000FFF7B8BE012384F85F32F3E794F85F3260
:103CD000002BEFD00023F6E71C9028206539006008
:103CE00037B5094D00244FF0FF334FF48062074988
:103CF0002846009404F05EFC0549284607F064FE5F
:103D0000204603B030BD00BF408B2820809628207D
:103D1000DEE1006030BFFFF7FDBF00BF2DE9F041DD
:103D20000B4E0546DFF82C80324606EB0807CC1B0D
:103D30000949204608F007F9A019083C424600212D
:103D400008F00FF907F108006C67BDE8F08100BFCB
:103D5000000000000400000078C80060054B5A69AC
:103D60009B689A4204D0044A536843F080535360DE
:103D7000704700BF0895282000ED00E0264B70B585
:103D800015469A6A064612F0100F9A6A14BF11245B
:103D9000102412F0080F9A6A18BF122492070AD54D
:103DA000586B9A6A140634D519B19A6A22F08002C7
:103DB0009A62132401E06FF01500174B9A6A12F013
:103DC000010F9A6A18BF142412F0200F9A6A18BFC4
:103DD0001524D20602D49B6A9B070AD50E4B5B685A
:103DE000190506D5314600F0FDF910B180F30988B8
:103DF0000224094B9A6A920603D55A6A22F40052A9
:103E00005A629A6A204642F0FF029A6200232B709F
:103E100070BD6FF01500CCE700ED00E0134B9A6A1F
:103E200012F0007F9A6A14BF1E201D2012F0807FBE
:103E30009A6A18BF1F2012F4002F9A6A18BF212017
:103E400012F4802F9A6A18BF222012F4003F9A6A57
:103E500018BF232012F4803F9A6A6FEA024218BF0B
:103E600024206FEA12429A62704700BF00ED00E022
:103E7000194B024610B5986A9C6A10F4805F14BF13
:103E80001720162014F4006F9C6A18BF1820A40590
:103E900009D5986B986A000404D51AB19A6A22F47D
:103EA00000429A6219200C4B9A6A12F4806F9A6A47
:103EB00018BF1A20D2050CD49B6A13F4005F18BFF8
:103EC0001C20054A936A43F47F43936200230B70DE
:103ED00010BD1B20F5E700BF00ED00E0484BF0B53A
:103EE0005B688BB004460025C3F3080385F3118893
:103EF000BFF36F8F02F07F40B0F17F4F11D102F01E
:103F00000C0008280DD010074CBF0C4601250022DC
:103F1000033B8DF80720032B05D8DFE803F0256469
:103F200068612C46F3E700239DF80720D2B902AE62
:103F300004F120072068083454F8041C3246BC42BF
:103F400003C21646F6D1099A002D54D0C2F30801D7
:103F500021B96FEA52226FEA4222099202A9184659
:103F600006F0E9F80BB0F0BD254BDA6A9107DAD418
:103F7000DA6A002AD7DBDA6A5200D4D55A69A16915
:103F800042F480725A61BFF34F8FBFF36F8F5A694B
:103F900031F8021C22F480725A61BFF34F8FBFF3D5
:103FA0006F8F4DF6027291420AD09A6AD2B24AB12C
:103FB0000DF1070201212046FFF7E0FE0346B3E7BB
:103FC0002368B1E79A6A12F47F4F05D00DF107011B
:103FD0000120FFF74DFFF1E79B6AB3F5803FA2D3C5
:103FE000FFF71CFFEAE70DF107020021E3E70DF1FF
:103FF00007010020EDE722F4FF7222F00102ACE796
:1040000000ED00E0044B5A6942F010025A615A690F
:1040100022F008025A61704700ED00E0EFF30880DB
:10402000EFF3098101B57246FFF758FF01BD00BFEC
:104030000B4880F3088805F0E2FE102080F3118819
:1040400008484FF40461401880F30988EFF31480A6
:104050000221084380F31488BFF36F8F00F08EF8BD
:1040600080B42820C09A2820084B9B6883420BD13B
:10407000EFF3058343B1064B5A6842F080525A6011
:104080005A6A22F400425A6204F012BE08952820AF
:1040900000ED00E014498A684FF030001044EFF35F
:1040A000098C80E8F01F102080F31288BFF36F8F17
:1040B0000E4F4FF000664A698A603E60506F0C4CAC
:1040C0002060906F0023936780F3118804B5104639
:1040D00000F034F9BDE8044002F1300090E8F01F30
:1040E0008CF30988704700000895282004ED00E053
:1040F000249028201EF0040F0CBFEFF30880EFF38C
:104100000980816911F8021C0229FFD001B57246AD
:1041100006F017F801BD00BF00B2002807DB01233D
:10412000410900F01F00024A834042F821307047E5
:1041300000E100E000B2013100284FEA0111C9B2EC
:1041400006DB00F1604000F5614080F80013704725
:1041500000F00F00014B1954704700BF14ED00E050
:10416000044B054A23F07F039360BFF34F8FBFF3E7
:104170006F8F70470020006000ED00E008B5FFF78A
:10418000EFFF0C4AD2F8883023F47003C2F888306D
:10419000EFF3148323F0040383F31488BFF36F8FCA
:1041A00003F03EFE04F0B8FE00F056F805F0ECFF18
:1041B00003F08EFE00ED00E042F8203C203A009B28
:1041C00007495360019B21F001019360029B9161BB
:1041D000D3604FF08073D36100230265836770471B
:1041E0009D290060094A0346906870B113F1160FCB
:1041F000406E05D0A0F140029A4205D8834203D216
:10420000814228BF00207047002070470895282071
:1042100015460C4A0E4608B50B4B9060426F1A606B
:1042200000F08CF82C4686F309880020034B984751
:104230002046002100220023014C204761A100609C
:104240009D2900600895282024902820014B1022E9
:104250001A61704700ED00E0002304481021C218E5
:104260000133A02B82F80013F9D1704700E100E080
:1042700008B5EFF30583064A103B02EBC30152F881
:10428000330049688847BDE80840FFF767BD00BFB5
:10429000C4C20060154A70B5536913F4803323D14A
:1042A000C2F88430BFF34F8FD2F8803043F6E07409
:1042B000C3F3C900C3F34E335B0103EA04060146AE
:1042C00046EA81750139C2F86052F9D2203B13F1F8
:1042D000200FF2D1BFF34F8F536943F48033536102
:1042E000BFF34F8FBFF36F8F70BD00BF00ED00E0D5
:1042F0000B4B5A6912F4003211D1BFF34F8FBFF349
:104300006F8FC3F85022BFF34F8FBFF36F8F5A697F
:1043100042F400325A61BFF34F8FBFF36F8F704783
:1043200000ED00E0024B0221024A034800F076B89B
:1043300000002C2000002820B4C80060426E4021FC
:10434000044B403A18461A60034AC3E9011201219E
:1043500000F06EB82890282000000B15084AC2F81B
:1043600098000B6823F01F03034343F01003C2F8C7
:104370009C308B6843F00103C2F8A030704700BF47
:1043800000ED00E02DE9F0430E4685B01F460446DF
:104390004FF00009DFF85480B14523DA6068D8B1E6
:1043A0003FB1411E08421BD11F2819D92368194269
:1043B00016D12368019305F0E8FEA3680343D0B249
:1043C0000393D8F89050C5F30725013DA84207D8BC
:1043D00001A9FFF7C3FF421C09F101090C34DBE717
:1043E0006FF01502104605B0BDE8F08300ED00E067
:1043F000044B0522C3F89420BFF34F8FBFF36F8F98
:10440000704700BF00ED00E0BFF35F8F024B00225A
:10441000C3F89420704700BF00ED00E010B5034CD6
:1044200001232278FFF7AEFF207010BD50952820A1
:104430000B4A08B500231278FFF7A4FF10F1160FFE
:1044400007D0084A0021D2F89030C3F307239842DE
:1044500000DB08BDC2F898000130C2F8A010F2E7F6
:104460005095282000ED00E066492DE9F043664CA8
:1044700085B0D1F890302268C3F307239A4200F246
:10448000BD80FFF7C1FF4B69DB031ED50023C1F8D8
:104490008430BFF34F8FD1F8803043F6E075C3F31B
:1044A000C900C3F34E335B0103EA0507024647EA3E
:1044B0008276013AC1F87462F9D2203B13F1200FE1
:1044C000F2D1BFF34F8FBFF36F8F002025680C260A
:1044D000A8421AD34D4C68464D4F2570FEF7EAFAB4
:1044E00000250646DFF81C81DFF82891AE4213D183
:1044F000237800204349D1F89020C2F30722934249
:1045000076DB0020FFF774FF42E0616806FB0011D4
:10451000FFF724FF0130DBE700984FEA051C00EBB2
:104520000511CB683B40B3F5000F48D00AD8B3F56E
:10453000001F30D0B3F5800F36D0B3F5801F10D0F8
:104540000135D3E7B3F1807F42D0B3F1007FF7D1DB
:1045500050F80C30886805F018FE4A6840F4802056
:1045600009E050F80C30886805F00FFE40F08850E4
:104570004A6840F4302003902078CDE90123D8F830
:104580009030C3F30723013B98422AD96FF01500FE
:1045900005B0BDE8F08350F80C30886805F0F5FDF3
:1045A0004A6840EA0900E6E750F80C30886805F0F0
:1045B000ECFD40F0C0604A6840F40030DBE750F8A2
:1045C0000C30886805F0E1FD4A6840F08270D2E75F
:1045D00050F80C30886805F0D8FD4A6840F08870C3
:1045E000C9E701A9FFF7BAFE237801332370A7E7D3
:1045F000C1F898300133C1F8A0007CE74FF0FF30DC
:10460000C6E700BF00ED00E088C800605095282094
:104610000000F0FF0000081108B5024B1B68984726
:10462000002008BD34902820034B044A186093787A
:1046300043F002039370704734902820D4822820DE
:104640000649074821F00701C1F1005208B502F5FB
:10465000301205F0EEFA002008BD00BF7FC128200F
:1046600038902820014806F03DBE00BF80852820F4
:1046700010B58AB00022002300241249CDE9062398
:104680006FF00D034FF4806201F588600094CDE96E
:104690000334CDE901440C4B04F044F80B490C48B9
:1046A00007F092F909AA21460A4806F0DEF8002828
:1046B00005DB099B22461979186806F0E9F80AB06B
:1046C00010BD00BF80862820D9460060E7E1006069
:1046D000C08A2820CCC80060F0B5674D87B0674C11
:1046E0004FF0FF324FF0FF3303A9284603F0D2FC0E
:1046F0009DF81420A2F11003052B6BD8DFE803F01E
:104700000360656A6A5B0026E3680E21A068324692
:1047100084F8D4605B6998473246D4F8E430134497
:10472000997D6FF341019975D4F8E4301344183240
:10473000997DB2F5C07F6FF300019975EDD14027E7
:10474000D4F8E430002601AA9F820221E368A06821
:104750005B6901978DF808609847D4F8E43002212E
:10476000A0689A7D66F341029A75D4F8E420937D9F
:1047700043F001039375802301AA8DF80630D4F825
:10478000E4309F85E3685B699847D4F8E4303146AC
:10479000012093F82E2066F3410283F82E20D4F8EE
:1047A000E42092F82E3043F0010382F82E30D4F842
:1047B000E030984794E70021D4F8E0300846F8E765
:1047C000D4F8E03000210520F3E7D4F8E0300021F0
:1047D0000620EEE7D30903EB420303F0FF030F2BA0
:1047E00047D8D4F8E47003EB430303AA07EBC306EE
:1047F00003CA47F8330071601068B060D4F8E41061
:1048000001EBC3031E7AF20902EB460202F0FF003D
:10481000D2B202EB4202D70001EBC202917D6FF3EC
:10482000410191755A6801323FF45AAF5B7AE3B99E
:1048300033061CD594F8D43063B101280AD1E3685B
:1048400008210F4A5B69A068984700287FF448AFA9
:1048500084F8D4000221D4F8E4303B441B69002BD7
:104860003FF43EAF304698473AE70021F3E7012195
:10487000F1E707B0F0BD00BF88842820808528209C
:104880005486282038B5134C134BC4F8E43094F800
:10489000E830D3B9114B04F1080221460220E3604D
:1048A00002F044FD054690B9024601217120FFF750
:1048B00041FC7120FFF730FC01232A46294684F889
:1048C000E830E368A0685B699847002038BD6FF066
:1048D0000400FBE78085282044902820D4C800608D
:1048E000084B142110B5DA6883F8D400986854692D
:1048F00003F1D402A047002814BF6FF01500002078
:1049000010BD00BF808528202DE9FF4102780446B4
:10491000344DD3098DF80A20D5F8E46003EB420347
:1049200003F0FF01DBB203EB43030F294FEAC30798
:1049300006EBC3064FF000038DF80C304388ADF84A
:10494000083003798DF80B3042D8B37D13F001089D
:104950003AD1EB6803218DF807200DF107025B695E
:10496000A8689847F16821B11F4806F073FFC6F8A0
:104970000C800022002361881B4803F01FFBF060BD
:1049800048B36288002107F0ECFAD5F8E430628879
:1049900002213B44A8689A8202AAEB685B699847A7
:1049A000E0B923785A0608D11B0606D4D5F8E430BE
:1049B0003B449A7D42F002029A75D5F8E4303B44BC
:1049C0009A7D42F001029A75002004B0BDE8F081A2
:1049D0006FF01500F9E76FF00B00F6E76FF00400D9
:1049E000F3E700BF8085282060842820C30903EBFB
:1049F000400303F0FF030F2B13B58DF807000ED80B
:104A0000084B0421DA68986854690DF10702A04741
:104A1000002814BF6FF00400002002B010BD6FF03A
:104A20001500FAE780852820F7B5C40905468DF8FA
:104A3000070004EB400404F0FF040F2C29D8164EA5
:104A40000DF107020521F368B0685B69984718B15A
:104A50006FF0040003B0F0BD6A0618D02B0616D420
:104A600004EB4404D6F8E420F368294602EBC402C0
:104A7000B068E700DC68938AD268A0470028E7D1D5
:104A8000D6F8E4303B449A7D42F002029A75002049
:104A9000E0E76FF01500DDE780852820C30903EB10
:104AA000400303F0FF030F2B37B50C4613D891B129
:104AB00000238DF804000B700721ADF80630094B78
:104AC000DA689868556901AAA84738B9BDF8063070
:104AD000237003B030BD6FF01500FAE76FF00400EB
:104AE000F7E700BF80852820C309014603EB400398
:104AF00013F0FF0370B51ED00F2B23D8164C03EB19
:104B00004303D4F8E420DD0002EBC302937D9E074B
:104B10001BD4480611D00B060FD4E368A068DE68EA
:104B2000938AD268B04798B9D4F8E4302B449A7D80
:104B300042F002029A75002070BD937D43F002039B
:104B40009375F8E76FF01500F6E76FF07700F3E77D
:104B50006FF00400F0E700BF8085282038B5C40955
:104B6000014604EB400404F0FF040F2C1ED8114D45
:104B7000A86898B9D5F8E43004EB4404002003EBAE
:104B8000C4039A7D6FF300029A75D5F8E43003EB05
:104B9000C4039A7D6FF341029A7538BDEB681B69B7
:104BA00098470028E6D06FF00400F6E76FF0150094
:104BB000F3E700BF80852820F8B5C40915461E46D6
:104BC00004EB400404F0FF040F2C1FD803061DD58E
:104BD000114F04EB4404D7F8E43003EBC4039C8A80
:104BE000DA68AC4228BF2C460025AC420AD1FB68EB
:104BF0000146B8689D682346A84750B906B134609D
:104C00000020F8BD4B5D53550135EEE76FF0150000
:104C1000F7E76FF00400F4E780852820F0B5C409B9
:104C20002E4E04EB4004D6F8E47004F0FF0EE4B21C
:104C300004EB44044FEAC40C07EBC404A57D15F053
:104C4000020548D1BEF10F0F02D96FF01500F0BD7B
:104C500010F0800FF9D149B157F80CC067687C1C7F
:104C60000DD1002BF1D000221A60EEE7002AECD122
:104C70006268511CF5D003B11A600020E7E7974243
:104C80002C4628BF1746A7420ED103B11C6000284E
:104C9000F3D1D6F8E430587A196890B1CB8843B98B
:104CA000002386F8E930E8E71CF804500D5501347C
:104CB000E9E791F90030002B01DA0123F1E7022343
:104CC000EFE796F8E9100029D7D0A242E8D99B8AED
:104CD0009C42E5D3D1E76FF00F00B8E7808528202C
:104CE000C309014603EB400303F0FF030F2B70B52C
:104CF00024D8020622D4164C03EB4303D4F8E42054
:104D0000DD0002EBC302937D9B071AD430B994F8FF
:104D1000E9308BB1012B08BF84F8E900E368A06893
:104D2000DE68938AD268B04770B9D4F8E4302B4477
:104D30009A7D42F002029A75002070BD6FF0150056
:104D4000FBE76FF00F00F8E76FF00400F5E700BF36
:104D500080852820C30903EB400000F0FF000F28E6
:104D60000CD8084B93F8E82042B100EB4000D3F890
:104D7000E43003EBC0030020196170476FF01500A9
:104D8000704700BF80852820014BC3F8E0007047C2
:104D900080852820C30903EB400000F0FF000F28A6
:104DA0009FBF064B00EB4000D3F8E43003EBC00399
:104DB00094BF988A6FF01500704700BF8085282047
:104DC00008B500220023024803F006F9002008BDC0
:104DD00088842820B1F5A06F38B5144604D0B1F509
:104DE000706F11D0002038BD094D0A4AAB69C3F37A
:104DF0000113D05C02F0C4FEAB69C3F382630133DC
:104E0000B0FBF3F02060EDE7022002F033FFF9E79A
:104E100000C00F40FDE1006008B5074806F09FFCA8
:104E200038B10648FFF700FC0448FDF799FD002063
:104E300008BD6FF01200FBE724C10060414E006026
:104E40000A2838B50446074D04D1AB680D21284621
:104E50005B689847AB68E1B202485B6898472046B8
:104E600038BD00BF24C1006073B51A4C0829D4F8BE
:104E7000306428BF0821D4F83054D4F83024D4F852
:104E800030342D0A12021B0605F47F4502F47F021E
:104E900043EA16632B4313430093D4F82064D4F8F9
:104EA0002054D4F82024D4F820342C0A1B0604F40F
:104EB0007F4443EA1663234314020A4604F47F0442
:104EC00023430C466946019307F03DF8204602B0A3
:104ED00070BD00BF00401F40014803F065BB00BF2C
:104EE000E482282008B505F03CFB024B1B68C01A81
:104EF00008BD00BF30922820014806F0F9BE00BF6F
:104F0000288428200A2307B5A0FB032300210020C2
:104F1000CDE90001024804F0FBF903B05DF804FBA1
:104F20002884282008B505F01CFB014B186008BD3B
:104F300030922820014B1868704700BF309228201B
:104F400010B5BFF35B8F114C022354E8002F012AE8
:104F500003D144E800310029F7D10CBF0120002023
:104F6000BFF35B8F10D10A4BDB6A9847002344F8EC
:104F7000403CBFF35B8F54E8002F44E80031002928
:104F8000F9D10120BFF35B8F10BD00BF78922820BC
:104F900018DD0060064B10B55C68FFF7D1FF30B13B
:104FA0002CB100212046BDE8104004F071BA10BDBC
:104FB000349228200D4B13B5D3E901433BB10C4B80
:104FC00000205B6B019302B0BDE810401847FFF76B
:104FD000B7FF40B13CB16FF00401204602B0BDE81C
:104FE000104004F055BA02B010BD00BF3492282022
:104FF00018DD00602DE9F347284C9A4607460D4618
:105000001646D4E9019383B1254B00205B6B98478A
:10501000E3682A463946CDE900A33346D4F8088030
:105020002068C04702B0BDE8F08704F144020223C3
:10503000BFF35B8F52E8001F012903D142E8003023
:105040000028F7D19046BFF35B8FEBD1E36C394674
:105050001A78AA4288BF1D70E36CA06C1A7806F01B
:1050600072FF236D03B11E80636D0BB183F800A046
:105070000B4BDB6A984700216160BFF35B8F58E8F8
:10508000003F48E80012002AF9D1BFF35B8F484681
:1050900002B0BDE8F04704F0FBB900BF349228200D
:1050A00018DD006070B5BFF35B8F0D4601200E491F
:1050B00051E8004F002C03D141E80006002EF7D143
:1050C000BFF35B8F0CD1D4B2084E41F8403C736DF6
:1050D000214698472846B36A21469847002070BD6C
:1050E0006FF00F00FBE700BF7892282018DD00600A
:1050F0002DE9F0478EB04FF000080126814605AC3F
:105100008A4615464146102209A8204FCDE905449C
:10511000CDE9078806F025FF8DF831607B6B0D9493
:1051200083B323462A4651464846FFF7BBFF041E79
:1051300024DBEDB20396164C3046CDE90185BB8FDA
:10514000646A009397F83A3097F8392097F8381046
:10515000A0470A23B040A0FB0323314609A804F06E
:105160003FF9041E0ADAFFF7EBFE38B94FF0FF32C1
:105170004FF0FF33314609A804F032F920460EB053
:10518000BDE8F0876FF01504F8E700BF34922820DF
:1051900018DD0060F0B58DB000240F46012503AE88
:1051A0008DF807202146102207A8CDE90366CDE936
:1051B000054406F0D6FE214B8DF829500B96BFF31F
:1051C0005B8F53E8002FA24203D143E8005100292E
:1051D000F7D1BFF35B8F2DD10DF10702FF212846D8
:1051E0005F609A60149A43E91064DA60144E159A6D
:1051F0001A61736D9847736B20469847DDE9122357
:10520000294607A804F0ECF8041E0DDAFFF798FE13
:1052100068B94FF0FF324FF0FF33294607A804F07A
:10522000DFF89DF8074002E0069C002CF9DA2046E2
:105230000DB0F0BD6FF00F04F9E700BF78922820A1
:1052400018DD006010B529B9FFF77AFED8B96FF004
:10525000150010BD0E4B0120BFF35B8F53E8004FCC
:10526000002C04D143E8000CBCF1000FF6D1BFF3D1
:105270005B8F0AD1074C43E90F12636DFF219847FA
:10528000636B002098470020E3E76FF00F00E0E732
:105290007892282018DD0060F0B5BFF35B8F8BB0EB
:1052A0000C462A4D012755E8003F002B03D145E865
:1052B0000072002AF7D1BFF35B8F44D1244E2068DF
:1052C000F3689847E37A53B32346103D04F110077F
:1052D0001868083353F8041C2A46BB4203C215461B
:1052E000F6D14FF47A6300220120F5690893237BFD
:1052F000CDE905220793CDE9032023890293A37901
:10530000019363790093237994F90A10A847B36D48
:10531000607B9847FFF714FE00200BB0F0BD0997A3
:105320003846227BB569CDE907320A22CDE905333B
:10533000CDE9033302922289CDE90032A379627963
:105340002179A847E3E76FF00F00E6E7789228207D
:1053500018DD006038B5BFF35B8F084601241146A5
:105360001A460A4B53E8005F002D04D143E8004C75
:10537000BCF1000FF6D1BFF35B8F04D1044BDB6BA4
:105380009847002038BD6FF00F00FBE77892282087
:1053900018DD006038B5BFF35B8F104B002453E875
:1053A000002F43E800410029F9D10D49BFF35B8F7D
:1053B0000C4D43F8341C0C492A6843F82C1C0B494B
:1053C00043F8440CA3F1340043F8241C084943F883
:1053D000301C9047EB6A9847204638BD78922820C9
:1053E000954F006018DD0060F54F0060B54F00601C
:1053F000A7A50060034BC01A034B001153F82030DF
:105400000020184798922820F482282008B5054BE0
:1054100002F01F02834204D1102A02D1024803F095
:10542000C3F808BDE4C1006098922820084B1A69AF
:105430001268D20348BF80F0010028B19B68DB6886
:105440004FF48031024818479B681B69F8E700BF9A
:1054500024C2006070B50368194C002B2ED0204682
:1054600006F07DF950B31749174806F06FFA256921
:105470000421A6684FF480322B68204623F01003E5
:105480002B60336898471149114B4B6010238B6098
:10549000F3699BB101222046984700280EDBB669CC
:1054A00066B12B684FF0A0720421204613F0100F54
:1054B00014BF4FF000734FF08063B04770BD00BF62
:1054C000E4C10060F5530060989228208C92282057
:1054D0000D54006010B58AB00DF10703099206AAB9
:1054E0008DF80700069301230292CDE907310223CC
:1054F000CDE903320593044802AA044983681C6875
:1055000004ABA0470AB010BD64C2006088DD006033
:1055100037B50546194806F022F920B96FF0120494
:10552000204603B030BD164806F019F90028F5D022
:105530004FF4D011134805F038F804460028EFD195
:1055400000214FF47A7006F0EEFA2046FFF76EFF66
:1055500000214FF47A7006F0E6FA01220DF10701FE
:105560004220FFF7B7FF002805DB2846FFF712FFB0
:1055700000EAE074D4E76FF00404D1E764C200608D
:1055800024C200609CDD006010B588B060F07F0030
:105590000DF107038DF80700079204930123CDE96D
:1055A000053104AB029302230393044802AA044981
:1055B00083681C680023A04708B010BD64C2006067
:1055C00088DD0060044A13680BB100215972436101
:1055D000106005F07CB800BFA892282037B50446BB
:1055E00001A804F0D1FF6CB1174D2A68134673B9B6
:1055F00063682360012323816AB9FFF793FC204687
:10560000FFF7E0FF01A804F0C8FF03B030BD9C42E3
:10561000F8D05B69EBE7FFF765FC236818442B685B
:1056200020601A689042EAD35A69596911B95C61DD
:105630006161E7E71168884202D913465269F4E7CD
:105640005C616261DEE700BFA8922820F8B51D4CBE
:10565000FFF770FC0546FFF765FC2368A3B1471B05
:105660001E462D1A716929B95A6919722260DA68C1
:1056700042B9FEE70A68BA428CBF521900220A609A
:105680007669EFE718699047002623682BB92068F0
:1056900080B9F8BD18699047F7E71D68FFF722FC4D
:1056A0008542F4D223685A691E722260DA68002AA1
:1056B000F0D1FEE7437A002BEBD1BDE8F84005F0CE
:1056C00006B800BFA892282037B5134D044601A89C
:1056D00004F05AFF2B686BB164B10022A34222721E
:1056E00011D1597A5C6961B15A7244B120462C607B
:1056F00004F0EDFF01A804F050FF03B030BDFFF748
:10570000FBFB2C60F6E71A465B69002BF2D09C424B
:10571000F9D163695361EDE7A8922820094B002273
:10572000194610B51C68844202D89C68844204D88B
:1057300001320833152AF5D1FEE701EBC2010879E1
:1057400010BD00BFB0DD0060054B93F8E1202AB921
:1057500093F80C2112B9012283F80C21704700BF85
:10576000F4922820014B93F8E0007047F49228202F
:10577000F0B5BDF814409DF818C09DF81CE09DF8E8
:10578000205040B1012814D001220023981801387C
:10579000B0FBF2F0F0BD8CF0010CE3000EEB450520
:1057A0004FF47A7103EBCC03183303EBC5034B437F
:1057B000ECE7501F0433012804D80C2C38BF0C240C
:1057C000002706E0C1B9A2F10B07012F8CBF00270B
:1057D00001272801BCF1000F4FEA8206A2F1020C5A
:1057E00000EBCE000CBF14250025062AA0EB82009A
:1057F000284408D835460BE00129E1D1A2F10C007C
:1058000047424741E5E70830002FF3D04FEA8C05C7
:105810000028ACBF2E182E1C062A06F1FF3090FB84
:10582000F5F003FB00448CBF0C340E3402290AD877
:10583000A3004FF47A72013303FA0CF35343024A84
:1058400052F82120A2E7FFDEA4DD006043F60953F1
:10585000B0FBF3F210B503FB120141F6846404EBD4
:105860000124B4FBF3F40A4B04EB0224C3F8E40074
:10587000C4F30741062004F071FFC4F30721072099
:1058800004F06CFF0820E1B2BDE8104004F066BFF0
:10589000F4922820114B70B593F8E160012E1CD1D1
:1058A00012200F4D04F065FF10F001040BD005210C
:1058B000122004F053FF2B687BB19B696BB130461B
:1058C000BDE8704018470421122004F047FF2B6800
:1058D0001BB19B690BB12046F2E770BDF492282002
:1058E0003894282070B5314C94F8E010012902D08A
:1058F000022952D070BD94F8E130CBB1012BF9D11F
:1059000094F82F31002BF5D00221122004F026FF4D
:10591000274B1B68002BEDD05C69002CEAD01C20C3
:1059200004F027FF234600F03F00BDE87040184711
:10593000A36E6BBB84F80C1194F80D31002BD9D1F8
:105940001C48FFF7C1FE0123112084F80D3104F03B
:1059500010FF4008404284F80E011B2004F009FFAC
:1059600005461C2004F005FF43F6095340EA0525CF
:10597000C0B22D0A58435D43803005EB10250C2042
:10598000C4F8105104F0F5FE400984F81401B1E7A1
:1059900094F80C31002BADD0CEE794F8E130012B18
:1059A000A8D194F82F31002BA4D0AEE7F492282090
:1059B00038942820AC92282070B5404C94F8E050E0
:1059C000012D02D0022D59D070BD94F8E130CBB139
:1059D000012BF9D104F06FFE0028F5D03848FFF70D
:1059E00073FE8021122004F0B9FE002384F8E03019
:1059F000344B1B68002BE7D0DB68002BE4D0BDE8FC
:105A00007040184704F057FE0028DDD02E48FFF7FD
:105A10005BFEB4F81631B4F8182113439BB23BB9BE
:105A200094F8FE00E8B92A4604F58B7104F0FFFDF6
:105A3000B4F81801B4F8162194F81A31121A23494F
:105A40009A42014413DB5A1E0020D2B204F0EFFD4B
:105A5000B4F8182194F81A31013A1344A4F8183113
:105A6000B2E7322004F085FEA4F81601E0E7D2B2D6
:105A7000002004F0DCFDB4F81631EFE794F8E150B3
:105A8000002DA1D104F017FE01289DD0B4F8180113
:105A9000B4F8163194F81B211B1A0C4993420144A7
:105AA00007DD284604F0C6FD94F81B31B4F8182130
:105AB000D3E7DAB2284604F0BDFDDCE7F4922820F3
:105AC000C492282038942820AC9228205195282070
:105AD00073B500238E4C8DF8073094F8E030012B1D
:105AE00004D0022B00F0FF8002B070BD94F8E130CA
:105AF0003BB3012BF8D14021122004F02FFE1220DD
:105B000004F037FE8DF807009DF80730814D13F043
:105B1000200F00F093802021122004F01FFE94F843
:105B200032310BB984F8E0307B48FFF7CDFD2B68AC
:105B3000002BD9D01B69002BD6D002B0BDE8704035
:105B4000184794F80031734D93B33F2004F011FED1
:105B50008DF807009DF807309B0729D40B213E20C4
:105B600004F0FCFD10213F2004F0F8FD6A48FFF727
:105B7000ABFD94F802618EB96848FFF7A5FD84F883
:105B8000E0602B6813B11B6903B198470023A4F8A8
:105B90000C31A4F81831A4F81631A5E70D2004F053
:105BA000E8FD40F040010D20C9B204F0D7FDE8E760
:105BB000B4F81621B4F81811594E52EA01030AD16B
:105BC00094F8FE0050BB0122564904F030FDB4F8B1
:105BD0001811B4F81621521A00203144D2B204F040
:105BE00026FDB4F816314C48A4F81831FFF76CFDC7
:105BF00094F80231C3B9494884F8E030FFF764FDF6
:105C00002B68002BC2D09D68002DBFD0002394F9D3
:105C10000E21B4F816114248A847B7E7322004F025
:105C2000A8FDA4F81601D2E70D2004F0A2FD40F073
:105C300040010D20C9B204F091FDE1E7192004F004
:105C400098FD40B20230801084F83C011A2004F024
:105C500090FD94F93C2140F30B133349002A3ADAC2
:105C6000D4F8E46092B29BB28E428CBF9D3AA43AC3
:105C70001044034413201BB2A4F83E3104F079FD14
:105C800084F84001102004F074FD01460D2004F05A
:105C900065FD94F840212249002004F0C8FC94F8E6
:105CA00032310BB984F8E0301B48FFF70DFD2B684B
:105CB000002B3FF419AF9D68002D3FF415AF94F908
:105CC0003C31AC46B4F93E2194F84011144802B07E
:105CD000BDE870406047D4F8E4209BB28A428CBF94
:105CE0009D38A438C5E71148FFF7EEFC94F8E13081
:105CF000012B03D10821122004F030FD002384F889
:105D0000E030044B1B68002B3FF4EEAE1B6812E73B
:105D1000F492282038942820C4922820AC9228207D
:105D2000519528200A94282040DD4A1FDC92282023
:105D300070B5092004F01DFD0546062004F019FD8C
:105D40000646072004F015FD0402082004F011FDAA
:105D500043F6095344EA064400210443C0B2240A2E
:105D600058435C43803004EB1024092004F0F6FC17
:105D70003B2004F0FEFC40F040013B20C9B204F09F
:105D8000EDFC3B2004F0F5FC8206FAD40C48FFF74A
:105D90005DFD3B2004F0EDFC40F040013B20C9B22A
:105DA00004F0DCFC3B2004F0E4FC8306FAD4294632
:105DB000092004F0D3FC2046BDE87040FFF746BD43
:105DC00000A1BC3308B50A48FFF77EFC0948FFF77D
:105DD0007BFC0948FFF778FC002004F0D5FC00208C
:105DE00004F012FC054B002283F8E02008BD00BF40
:105DF000C4922820DC922820AC922820F4922820FB
:105E000008B50848FFF760FC0748FFF75DFC074846
:105E1000FFF75AFC012004F0B7FC054B002283F881
:105E2000E02008BDC4922820DC922820AC922820D3
:105E3000F492282037B5604C05468DF8071094F889
:105E4000E130DBB1012B45D000255C48FFF73CFC7D
:105E500029465B4804F059FC94F8E130002B76D0D9
:105E6000012B00F08C800223554884F8E030FFF7C6
:105E7000B5FB032004F088FC03B030BD9DF807108B
:105E800094F8FE00A4F81831A4F81611F0B9012214
:105E90000DF1070104F0CEFB9DF80720531E3F2BA8
:105EA00004D92946474804F008FC2022294600204E
:105EB00084F81B2104F0BEFBB4F8182194F81B31C0
:105EC000D4F804511344A4F81831BEE7322004F08A
:105ED00045FCE1E794F8313133206BB304F049FC21
:105EE00000F0BE01332004F039FC19213B2004F0FE
:105EF00035FC9DF80710222084F8401104F02EFC98
:105F000000210E2004F02AFC00210D2004F026FCC4
:105F1000012004F02EFC30F0F80304D1FFF770FFED
:105F2000012004F019FC29469DF80720002004F008
:105F300081FBD4F8345188E704F01BFC00F0BE016B
:105F4000332041F0010104F009FC1D21CEE740207F
:105F500004F00FFC00F00301402004F0FFFB41209F
:105F600004F007FC00F03E01412004F0F7FB35206F
:105F700004F0FFFB00F03F0084F81A0173E794F887
:105F80002F3173B1F521112004F0E8FB402004F01B
:105F9000F0FB00F0330141F04001402004F0DEFB53
:105FA00061E7F721112004F0D9FB402004F0E1FB68
:105FB00000F03F01EFE700BFF4922820C4922820B0
:105FC000DC92282051952820F8B5824C054682485D
:105FD000FFF77AFB94F8E1604EB1012E4DD001231A
:105FE00084F8E030002D00F0F280002729E0402006
:105FF00094F8027104F0BDFB00F00301402041F071
:106000000C0104F0ABFB412004F0B3FB60F03E0157
:106010004120C9B204F0A2FB352004F0AAFB00F035
:106020003F001E2184F81A010D2004F097FBA4F80C
:106030000C61A4F81861A4F81661012384F8E0301B
:1060400035B16648294604F060FB6448FFF7C6FA9C
:1060500094F8E130002B40F0B480052004F094FB6C
:10606000002F40F0B680D4F808115D4804F04DFBD5
:106070005B48BDE8F840FFF7B1BA94F831313320FE
:1060800033B304F076FB40F041013320C9B204F091
:1060900065FB19213B2004F061FBD4F8203131204D
:1060A000082B7DD804F065FB00F07F01312004F05F
:1060B00055FB0021302004F051FBD4F82031082B8F
:1060C0001CD8DFE803F01036404A545E6868680068
:1060D00004F04FFB00F0BE01332041F0010104F059
:1060E0003DFB1D21D6E72F20482104F037FBD4F8D3
:1060F000E40000F5F4500230FFF7A8FB94F82F31CC
:1061000094F83271002B52D01D21112004F026FB8F
:10611000402004F02EFB00F03301402004F01EFB71
:1061200000210F2004F01AFB00210D2004F016FBC3
:1061300083E72F20442104F011FBD4F8E40000F59C
:1061400022503430D8E72F20442104F007FBD4F844
:10615000E40000F574500430CEE72F20442104F011
:10616000FDFAD4F8E40000F5A2405E30C4E72F2029
:10617000442104F0F3FAD4F8E40000F5F4401230BE
:10618000BAE72F20442104F0E9FAD4F8E40000F53E
:106190002240C630B0E740212F2004F0DFFAADE7FF
:1061A00004F0E7FA60F07F013120C9B2F5E71F2162
:1061B000112004F0D3FA402004F0DBFA00F03F0194
:1061C000ABE727B10520BDE8F84004F0DDBA0620B2
:1061D000F9E7F8BDF4922820DC922820C492282008
:1061E000AC92282008B520B101280AD04FF0FF302A
:1061F00008BD112004F0BDFAC0F34700404200B2D0
:10620000F6E7074B1B20D3F8E420064B9A4203D94C
:1062100004F0AFFA9D38F2E704F0ABFAA438EEE7E9
:10622000F492282040DD4A1F10B50446012004F0F6
:10623000A0FAC0F3C010184BA04202D183F8E100CD
:1062400010BD012C4FF0000083F8E14013D004F0A2
:106250009BFA012004F08DFA00F07F01012004F088
:106260007DFA0021402004F079FA30214120BDE878
:10627000104004F073BA04F087FA204604F079FA6B
:1062800060F07F012046C9B204F068FA0021402086
:1062900004F064FA0021E9E7F492282038B5164B9F
:1062A000002516491860164804F027FA13491548C6
:1062B00004F023FA1149144804F01FFA134C04F0B7
:1062C000A5F9FFF735FD002004F05EFA1048FFF74E
:1062D000C1F820780135FFF7A7FFA1786078033473
:1062E00004F03CFA102DF4D10020FFF79DFF094B7C
:1062F000002283F8E02038BD38942820D968006057
:10630000DC922820C4922820AC92282088E20060E9
:10631000F4822820F49228202DE9F04F87B005461A
:106320000C4616460093109B9DF8602001939DF843
:106330005C309DF8581002939DF8643004920393EA
:106340000591BDF84470BDF848B09DF84C809DF8AB
:1063500050909DF854A0FFF767FFFFF751FDDDE96E
:1063600003322DB1012D05996BD007B0BDE8F08F38
:106370008F49019881F802314FF4FA53C1F8F8605F
:1063800003FB0BF381F80121C1F8F4000220C1F8EE
:10639000F04081F8FE8081F8FF9081F800A1A1F81B
:1063A000FC70B3FBF6F3C1F80831824BB3FBF6F691
:1063B000C6F3072104F0D2F90320F1B204F0CEF9BC
:1063C0002046FFF7ABF90146122004F0C7F9019807
:1063D000FFF7A4F90146132004F0C0F92520390A7B
:1063E00004F0BCF92620F9B204F0B8F9B8F1000FB6
:1063F0001BD04946322004F0B1F9302004F0B9F93D
:1064000000F06F000543302045EA0A11C9B204F0DC
:10641000A5F9312004F0ADF940F040013120C9B2B6
:1064200007B0BDE8F04F04F099B9FF21322004F025
:1064300095F9302004F09DF96FF07F0500F06F00B2
:10644000E0E7022C00D9FEE7594D062E04F10704BF
:10645000009885F83231334638BF062385F82F116E
:1064600002990C2B85F82901A5F82A7128BF0C2365
:10647000072C85F82C8185F82D9185F82EA185F8BB
:10648000301185F83121C5E9484676D1A3F10B02D8
:10649000012A8CBF002201221D2085F828210193AA
:1064A00004F067F9009B1D2048EA430141EA04110A
:1064B000C9B204F053F91E2004F05BF9CBF30121BB
:1064C000019B00F0080041EA8A0141EA03110143FF
:1064D0001E20C9B204F042F9262004F04AF995F8CA
:1064E000283120F00801262041EAC301C9B204F096
:1064F00035F91F205FFA8BF104F030F92020390ABA
:1065000004F02CF92120F9B204F028F9B8F1000FB9
:1065100003D04946222004F021F995F82F316BB1C0
:10652000442004F026F960F07F014420C9B204F051
:1065300015F995F83011242004F010F9092C29D10F
:10654000D5F8E42002211C4B36209A421ED904F0D3
:1065500005F964213A2004F001F9062E4FF03100CC
:106560001BD804F006F900F0F801312041F00501D4
:1065700004F0F4F80C21372052E7082C04D10B2E3C
:1065800094BF0022012287E7002285E704F0E6F8A5
:106590007F21DFE703213620DDE704F0EAF800F091
:1065A000F801312041F0030104F0D8F80A21E2E7B4
:1065B000F49228200048E80140DD4A1F2DE9F04F01
:1065C00087B01E468A4617469DF854309DF85C10E9
:1065D000189A05939DF85830049102930392019004
:1065E000DDF840809DF844B0BDF848909DF84C50CF
:1065F0009DF85040FFF718FEFFF702FC504604F0EC
:106600001CF8019BDDE903212BB1012B059B5BD01D
:1066100007B0BDE8F08F764B0420C3E93B7683F8E2
:10662000FE5041F6846683F8004185F0010583F849
:1066300001112401C3F8042183F8E8A044EAC51439
:10664000C3F8F880A3F8FC9043F60953B7FBF3F2C4
:1066500003FB127706EB0726B6FBF3F606EB0226E2
:10666000C6F3072104F07AF80520F1B2614E04F078
:1066700075F80220B6FBF8F6C6F3072104F06EF8B1
:106680000320F1B204F06AF825204FEA192104F042
:1066900065F826205FFA89F104F060F8302004F0F4
:1066A00068F800F06F0004433020E1B204F056F8BF
:1066B000312004F05EF840F040013120C9B207B04B
:1066C000BDE8F04F04F04AB8494F022E87F81CA1EC
:1066D00000D9FEE7B8F1060FC24606F10706029898
:1066E00038BF4FF0060A87F829B1A7F82A91BAF106
:1066F0000C0F87F82C5187F82F3128BF4FF00C0A68
:10670000072E87F8300187F82E4187F83111C7F836
:106710003421C7E9486856D1AAF10B02012A8CBF7F
:106720000022012287F828216BB1442004F021F8CF
:1067300060F07F014420C9B204F010F897F83011DE
:10674000242004F00BF81D20A40004F012F81D20F2
:1067500045EA4B0144EA0A1441EA0611C9B203F0C2
:10676000FDFF1E2004F005F800F00B0004431E207E
:10677000E1B203F0F3FF262003F0FBFF97F8283186
:1067800020F00801262041EAC301C9B203F0E6FF68
:1067900020204FEA192103F0E1FF21205FFA89F15F
:1067A00003F0DCFFB8F1060F4FF0310015D803F00D
:1067B000E0FF00F0F801312041F0050103F0CEFFC9
:1067C0000C2137207BE7082E05D1B8F10B0F94BFC1
:1067D00000220122A6E70022A4E703F0CAFF00F08E
:1067E000F801312041F0030103F0B8FF0A21E8E786
:1067F000F49228200048E8014FF47A7330B58BB04A
:1068000003FB02F40D46FFF721F800230522294679
:10681000089418460393174DCDE901324FF4965270
:10682000CDE90633CDE9043300921A46FFF7C6FEE0
:10683000312003F09EFF00F0BF01312003F08EFFF6
:10684000F021402003F08AFFA021412003F086FFC1
:106850002146284603F059FF074B0222284683F8B9
:10686000E020FEF7BBFE03200BB0BDE8304003F094
:106870008BBF00BFDC922820F492282038B5054653
:106880000C46FFF7D1FC15B1012D0BD038BD074BDD
:1068900093F8FE30002BF9D121463220BDE8384074
:1068A00003F05CBF21462320F8E700BFF4922820C4
:1068B00010B504460120FFF7B7FC064B83F83841BA
:1068C0002CB134213920BDE8104003F047BF12211C
:1068D000F8E700BFF492282070B52C4C94F8E03013
:1068E000012B02D0022B2DD070BD94F8E130CBB932
:1068F0000B213E20A4F80C31A4F81831A4F816316D
:1069000003F02CFF10213F2003F028FF94F8023100
:1069100093B10D2003F02DFF40F040010D20C9B2CE
:1069200003F01CFF1A4B1B68002BDDD0DB68002B2B
:10693000DAD0BDE870401847164884F8E030FEF71A
:10694000C3FEEFE7144D002603F060FEFFF7F0F9F9
:10695000002003F019FF28780136FFF765FCA978BD
:106960006878033503F0FAFE102EF4D10020FFF70B
:106970005BFC94F83801FFF79BFF002384F8E030BC
:10698000034B1B68002BAFD05B68D0E7F492282044
:1069900038942820AC92282088E20060124B03F142
:1069A000780252E8002F42F00C0203F1780040E830
:1069B00000210029F3D103F1700252E8002F42F0C8
:1069C000300203F1700040E800210029F3D103F107
:1069D000780252E8002F42F0300203F1780141E8DA
:1069E00000200028F3D1704700C00F402DE9F74F79
:1069F000D0F8048081460769D8F80050D8F8040020
:106A00002C4604F0ACFE002800F095807DB14B4B85
:106A10009D4259D003F580439D4257D003F58043F2
:106A20009D4255D003F580439D4253D10424444BED
:106A300033F91430190A434A03F01F0302EB8102B1
:106A40000321994052E8003F0B4342E80030002800
:106A5000F8D12B684FF0010ABE681B0E083687F884
:106A60006C30D7E9023203EBC203A6F1080293426D
:106A700033D801AA0021D8F81C0003F0F6FE041E4A
:106A800052DB019B00221979186803F001FF0446CC
:106A9000002849D107F17002D8E901018368DB6859
:106AA000002B45D09847044600283DD12B6943F080
:106AB00002032B612B6943F440732B612861484624
:106AC000D8F80C3098472FE00124B0E70224AEE755
:106AD0000324ACE74FF0FF33ACE756F8080C04F0A2
:106AE0003EFE40B356F8080C16F8041C36F8023C7B
:106AF000DA0704690AFA01FBD0F808C054BF43F46E
:106B0000B01383F4D013D4F800E0083623F48012D5
:106B1000DB074CBF4BEA0E032EEA0B032360DCF8C5
:106B200000309847041E9CDA204603B0BDE8F08F81
:106B30006FF05704F8E76FF01204F5E700403940B2
:106B4000A0E0006068C00F402DE9F04FD0F804804D
:106B500089B004690546D8F80060676ED6F81490CD
:106B600097F808B019F0020F5AD119F0010F40F050
:106B7000C080236E0021D4F850C003FB0BF2012328
:106B80006345C0F0DA80CA4207D1B36923F002033B
:106B9000B361336943F400733361A16D002940F0A0
:106BA000D980B369002B40F0CF806F682C693E68B4
:106BB000236404F1280001F097FB97F824300121A9
:106BC0005A0903F01F03994002F16003754A42F825
:106BD000231023689B88DA0403D4336E23F4401314
:106BE000336623686BB19A685AB1998811F480555D
:106BF00007D1186904F0A3FD20682946083003F086
:106C000079FF23681BB19B889B0400F1A3800023BC
:106C1000636004F1100009B0BDE8F04F01F064BBFF
:106C2000B3699A07A1D50223736104F16003059348
:106C300004F15003069304F14C030793F36D13F42E
:106C4000F81FC3F3044E90D0236E002B8DD02B6918
:106C50005A6E1B6E0292002203931046039B9A42C7
:106C600001D0724517D1216EE06D3B7A0029E5D045
:106C70008A42E3D8891A2166002935D1E26C079847
:106C80000832E264226D013A2265DDE9052103F054
:106C900071FEE065D2E76B682969D3F800C0CB6D5F
:106CA000DCF874C0CDF810C0D1F860C0A3B1496E53
:106CB000034491F808A0002101935FFA81FCD445B8
:106CC0000DD24FEAC10C049B013123FA0CFC019B4D
:106CD00003F801CB0193F0E7BCF1000FE7D0029B72
:106CE00001321B7A1844B9E70028A7D002FB030041
:106CF000CFE7B369DB077FF53CAF29694FF0010CA3
:106D00006B684A6E1B68507A5A696045C3F814C0B4
:106D100008D1100506D54FF400625A611A6942F491
:106D200080721A618A6D22B99A6922F001029A6111
:106D30001FE7284603F04AFE1BE7E06C00EBC300A8
:106D40000133406801441BE7D7E900349C4204D377
:106D5000336E336609B0BDE8F08FF26D1B1BF06D2A
:106D6000C2F3044200F01F009A4238BF991A98F803
:106D700022301B1A98F82300821A934228BF134628
:106D80006A688B4210682A6928BF0B46516E002240
:106D90001446934203D14A681A444A60DAE7013242
:106DA0004466F6E700E100E04FF0E0230F4910B53C
:106DB0009C691A6908689B6902F480320C4934B9ED
:106DC00093B903464AB90A681044C01A10BD002B93
:106DD00008BF03460AB9A342F5D90A6802440A600B
:106DE0004FF0E0221269EEE70446F3E758942820BA
:106DF000549428200A4B1022002083F823204EF6BA
:106E00006022084B1A604EF65F22074B18604FF065
:106E1000E0235A6198611A6942F007021A617047CB
:106E200000ED00E05894282054942820684620F073
:106E300007018D4619B5FFF7B7FF1149114B0868D7
:106E4000D3E90042001942F10002C3E900020E4AF0
:106E500000230B604EF66023D2E90041001BB0FB1B
:106E6000F3F043431B1941F10001C2E9003102F084
:106E70004FF9FCF773FFBDE819408546704700BF26
:106E800054942820E88B2820E08B28202DE9F0411D
:106E9000DFF8E08099B1421C0BD14FF0E02213697A
:106EA00023F0010313614FF07F43C8F80030BDE8C1
:106EB000F081D8F80060012807DC00270BE0431CB4
:106EC000D8F80060F7D14FF48B7040F21713984256
:106ED000A8BF1846471EEFF31185102383F31288CD
:106EE000BFF36F8FFFF760FF234C4FF0E0239969EA
:106EF000D4E9002380184FF0000243F10003C4E9F5
:106F000000031E4B1A601E4B1A68831A2ED44EF6CD
:106F1000602C0CFB073303F56A435F33B3FBFCF7CC
:106F2000131A40F6A6620CFB0733934238BF134690
:106F3000144A934228BF1346C8F800304FF0E022AD
:106F4000013B90695361002381429361A1EB0003EF
:106F5000D4E9001238BF9B195B1842F10002C4E962
:106F6000003285F31188BFF36F8FA0E740F6A66368
:106F7000E2E700BF58942820E88B2820549428206A
:106F8000E08B28204084FE0038B5EFF311851023F4
:106F900083F31288BFF36F8F084B1C68084B1B6884
:106FA000E41AFFF701FF85F31188BFF36F8F4EF6E8
:106FB00060232044B0FBF3F038BD00BFE88B2820ED
:106FC000E08B282038B5EFF31185102383F3128866
:106FD000BFF36F8F044B1C68FFF7E6FE85F3118843
:106FE000BFF36F8F204438BDE88B28202DE9F04F88
:106FF0000D4687B01E46CB09490004460093002386
:1070000001F01E010392059341EAD519002800F012
:10701000FA8003694FEA891803EB891393F8383033
:1070200013F00103019302D090F89E7027B101275D
:10703000384607B0BDE8F08F06F57F5305A83F330B
:10704000B3F5804F2CBF4FEA933A4FF0010A04F09A
:107050005DFB94F89C30534506D2BFF34F8F0598E3
:10706000022704F05CFBE3E74FF0000C4FF0800ACE
:1070700004EB8901E646A269B6F5804F02963346D5
:10708000106828BF4FF48043BEF1000F08BF93463D
:10709000A061F61A94F89C0000F1FF3084F89C007F
:1070A0004FF0010010604FF00000506003987044F2
:1070B0009060906800F5805020F47F6020F00F0011
:1070C000D060D06800F580501061106900F58050E4
:1070D0005061506900F580509061506863F31E4024
:1070E0005060D069D2F8089063F31E30C9F30B09E1
:1070F000D06120F0004020F47F6020F00F0040EAD3
:107100000900D06103D1506840F4004050605068DD
:107110009E446AF307005060C86D002837D00260B3
:10712000CA65002EA7D115F00F021CD10099D1B16C
:10713000206900EB080191F83810890713D50299EE
:1071400089B1C18E99420ED950F80810C1F30A4195
:10715000B3FBF1FE01FB1E332BB950F8083066F388
:107160005D7340F80830ED08012305F01005154364
:10717000AB40BCF1000F24D16268D2F8B0211A42B2
:1071800009D0BFF34F8F059804F0C9FA50E7DDF836
:1071900004C0CA61C4E76168D1F8402142F480426A
:1071A000C1F840216268D2F8B801D2F84011490410
:1071B000F1D5D2F84011034221F48041C2F84011C8
:1071C000DFD1226900214244C2F808B0226942445A
:1071D000D160BFF34F8F0D496268C2F8B031626869
:1071E000D2F8B8011842CCD1013905D1BFF34F8F85
:1071F000059804F094FA1AE7D2F8BC011842C0D1FD
:10720000C2F8B031EBE7032712E700BF8096980081
:107210002DE9F04F02EB410A4FF0010901EB021397
:1072200085B000EB8A08002741EAC2110546D8F86C
:107230001C4009FA03F94FEA8A1ADFF8ECB024F08F
:107240001F04CEB24FF0FF32CDE9017714B905B07B
:10725000BDE8F08F019B3BB9A368A18B03EA0B0348
:10726000C1F30B010B4301936368190647D50292E2
:107270006968D1F8B43143EA0903C1F8B4316B68E5
:10728000D3F8B41111EA090FFAD1D3F8B83113EADF
:10729000090FEDD16B68C3F8BC91D8F81C30D8F851
:1072A0005C108B423BD1C8F81C700121C8F85C709F
:1072B0002B69534499602B695344DF6063681B0456
:1072C00003D4D8F81C301F2B0BD801A928688DF8DF
:1072D0000C608DF80D7003F0C9FD4FF0FF32CDE961
:1072E00001776760AB69236095F89C30AC6101332E
:1072F00085F89C30D8F81C4024F01F04A6E7E36909
:107300006168C3F31233C1F30E418B42C2D361688B
:10731000C1F30E415B1A029919440291BAE71B6846
:10732000C8F81C30CAE700BF00F0FFFF2DE9F043AA
:10733000871E85B0894690462C49FEB22C4A0346EA
:10734000012E0292CDE9002102F10402039241D9FB
:10735000062544E0274C012184F89F3004AB1170CE
:1073600003EB8707244A57F8103C6261234A6360A5
:10737000226100F007F904ABA06003EB860656F823
:10738000083CE3606368D3F8402142F00202C3F88E
:107390004021D3F840219207FBD4D3F8242102F0F6
:1073A0001F0112F0180F84F89D101CD0D3F8A821EB
:1073B000104822F00302C4F80090C3F8A821D3F8C3
:1073C000A82142F00202C3F8A82103F0F9FCC8F892
:1073D000004004E00A4A1578002DBBD0032528465A
:1073E00005B0BDE8F0830125F9E700BF00022E409B
:1073F00000002E405C9428200040282000482820CF
:107400005196282008B9032070470D4B984202D1AD
:107410000C4B00221A7042680023C2F848314168C0
:10742000D1F8402122F00102C1F8402141681846FC
:10743000D1F8402142F00202C1F84021704700BF5C
:107440005C942820519628202DE9FF41CB0801F0BB
:107450000F024D004FF0010803F01003002405F067
:107460001E050F461343064645EAD115009408FA57
:1074700003F8002800F08280684604F047F94FF0D6
:10748000FF3329B2019406EB85050293EA6922F0E5
:107490001F04D4B9EB692046DFF8E4C023F01F03D2
:1074A000DBB93269012002EB81129060326902EB94
:1074B0008112D360BFF34F8F009804F030F9002C95
:1074C00052D1002004B0BDE8F081E37F43F0800397
:1074D000E377246824F01F04DBE793F91F20002AD8
:1074E000E8DA5A6812F0800F12D0D6F804E0DEF81D
:1074F000B42142EA0802CEF8B4217268D2F8B4E1AD
:107500001EEA080FFAD1D2F8B82112EA080FEBE709
:10751000019A4AB99A68B3F81CE002EA0C02CEF369
:107520000B0E42EA0E020192EA69D5F85CE0724560
:1075300015D1E861E8655A68120413D4EA691F2A74
:1075400098BF01245860B2691A60B36196F89C3004
:10755000013386F89C30EB6923F01F03A0E7126823
:10756000EA61E8E70124EDE7002301A930688DF81E
:107570000C708DF80D3003F079FCA2E70320A1E731
:1075800000F0FFFF82B00E4B0128009303F58053FB
:10759000019312D9831EDBB2012B07D9831FDBB203
:1075A000012B03D90A38C3B2012B06D802AA02EB79
:1075B000830353F8080C02B070470020FBE700BFBC
:1075C00000900D402D492E4A08B50B8923F0010388
:1075D0001B041B0C0B81138923F001031B041B0CE0
:1075E00013810B88580705D50B8823F004031B046F
:1075F0001B0C0B8013885B0705D5138823F004034D
:107600001B041B0C13801F4B1A68900430D51E4AB4
:107610005A604FF6FF729A601A6822F0A00242F098
:1076200020021A604FF0E0231A69D10703D51A69C6
:1076300022F001021A61154B5A69920315D45A6956
:1076400012F4003211D1BFF34F8FBFF36F8FC3F825
:107650005022BFF34F8FBFF36F8F5A6942F400324D
:107660005A61BFF34F8FBFF36F8F04F067F808BD07
:107670004CF220525A604DF62812C9E700800B40A8
:1076800000000D4000C00B4020C528D900ED00E0EF
:10769000044BD3F87032DB0602D4034B18687047F2
:1076A0000248704700800D400495282000366E0186
:1076B000104AD2F8803043F00303C2F8803002F55C
:1076C000F212D2F8403143F00203C2F840310A4BC3
:1076D00000BF013BFCD1094A0120D2F8203123F43C
:1076E000F85323F0010343F4B85343F00103C2F805
:1076F0002031704700C00F40801A060000800D4006
:107700000F4A037911689B0321F4E0319BB20B43CC
:1077100043F4803313601168036821F4415103F08E
:107720007F0321F03F010B4343F4005313601368C0
:10773000002BFCDA136823F480331360704700BF1A
:1077400000800D400F4A437811699B0321F4E0311A
:107750009BB20B4343F4803313611169037821F426
:1077600041515B0021F0020103F002030B4343F49B
:10777000415313611369002BFCDA136923F480333E
:107780001361704700800D4008B50E4B1A699204D2
:1077900014D51A6942F040021A610B4B01201A6B92
:1077A00022F000421A631A6B22F080421A63002210
:1077B0001A601A6B42F4C6121A6308BD0348FFF739
:1077C000C1FFEAE700800D4000900D40D2E200606A
:1077D000C0F30B41024600F01F0001F1804101F5AA
:1077E000582170B50B68C340D80719D50B6813F43E
:1077F000404F18D1FFF74CFF04460B6813F4803359
:107800000FD152498A424AD021D8A1F5A0018A421B
:1078100000F0988009D80D2A31D04D4B9A4235D0CE
:107820000024204670BD0024E7E74A498A42F7D188
:10783000494D286D2A6EA4FB0001FAF741FD2B6B20
:10784000DB074CBF1623142363431C18E9E74349A5
:107850008A4271D00ED842498A4245D0414B9A4261
:10786000DED13D4BD3F8E03003F003033E4A52F83B
:107870002340D6E73D4B9A42D2D13D4CD1E7364B1F
:107880001B6803F07F0363435C08CAE7324B1B6944
:1078900013F0020F0CBF142316235C43C1E72E4DD7
:1078A0002E6FD5F88000D5F8902006F07F06A4FB57
:1078B0000001FAF705FD2B6F664313F4C01306EBC6
:1078C00000040DD0B3F5002F0CD0D5F87031294A43
:1078D0001340B3F5004F2DD09342A2D1A408A0E7E6
:1078E000A408F2E76408F0E71B4DD5F8A060D5F8CE
:1078F000B000D5F8C02006F07F06A4FB0001FAF71F
:10790000DFFCD5F8A030664313F4C01306EB000487
:107910000CD0B3F5002F0BD0D5F8703103F04043F5
:10792000B3F1804F06D0B3F1404FD6E7A408F3E798
:107930006408F1E7640874E7074BD3F8E030C3F359
:10794000810393E7044B1B6AA2E700BF0D007000A0
:107950000D0010000D00300000800D401400E0000C
:107960000D00A0000D00E000A0DF00601500E000A9
:1079700040787D0100808000044BDB68DB0702D487
:107980000348FFF725BF0348704700BF00C00F4002
:107990000D00100000366E0110B504461448FFF7C4
:1079A00017FF1221A0FB0101032C1ED8DFE804F011
:1079B000020B11170F4BD3F8002102F03F020023F6
:1079C000FAF77EFC10BD0B4BD3F80021C2F3052261
:1079D000F5E7084BD3F80021C2F30542EFE7054B6A
:1079E000D3F80021C2F30562E9E70020EAE700BF0F
:1079F0000D00300000800D4010B5204C6069A36977
:107A000010F000701AD003F44053B3F5805F07D034
:107A1000B3F5005F0ED07BB91948FFF7D9FE01E03E
:107A2000FFF736FE154B5B69C3F3C2630133B0FB4E
:107A3000F3F00DE01348F0E70020F3E703F44023F0
:107A4000B3F5002F15D004D86BB1B3F5802F0FD04C
:107A500010BDB3F5402FFBD10D20FFF7B9FE236910
:107A600003F00703E2E70748BDE81040FFF7B0BEA8
:107A70000220BDE81040FFF78FBF00BF00C00F40DD
:107A80000D0010000D00300008B5FFF7B5FF044BE6
